:06000000020069020A7013
:01000B0032C2
:03001300020A9945
:03001B00020AC80E
:0100230032AA
:01002B0032A2
:01003300329A
:01003B003292
:03004300020B01AC
:03004B00020B6F36
:03005300020BFCA1
:01005B003272
:03006300020C2B61
:0300C700750800B9
:0300D400020066C1
:030066000201464E
:1000D70053DC9F2212011912176175F0F474011293
:1000E7001D8E12181F1216E11217A71217301219B8
:1000F70002121797538CDF438C10904061E0444005
:10010700FFF0D2AF2212112D12116C751400751564
:10011700002290404FE0547FFFF04440FFF044043A
:10012700FFF04402FFF0904052E04420FFF043FF0D
:1001370020E04404FFF090404FE04411FFF0227E9E
:100147003A7F98EF24FFFDEE34FFFCFE8D074D70DC
:10015700F212010C1200DB1200D7900090E070053C
:100167001211AD8003120C52E50860EEB292121D17
:0A017700E91208907508000201610A
:0A00CA00900079E4F0A3F07509003E
:100181007509019000467407121E67227408B514A0
:100191000280087409B5140280012290003DE0FF3D
:1001A1006009BF01030202650202F5122080FFC34C
:1001B10074999F74818EF063F08095F04003020280
:1001C10047900056E0FF0FEFF0FF24F540030202D5
:1001D100F590003D7401F0121EB6121EAB121ECC3A
:1001E100121EC11218461218871218C690003CE060
:1001F100FFBFB002801A122080FFF5F0EE12236DCE
:10020100AE83AF82900066121E83EEA3F0EFA3F0DF
:100211009040AEE4F0A3F090005BF004A3F09000F6
:100221006A121E7390006E121E73904092121FD5B7
:10023100121F29904090E4F0A3F0122041900FB0DA
:10024100121E610202F59000177402F07422A3F0ED
:10025100900017121FD59040AE121E61900056E417
:10026100F00202F590005B121FD5121E1E90005B7A
:10027100121E9C90005B121FD5C39401EE94005096
:10028100030202F590005BE4F0A3F0900046121F18
:10029100D5F5F0EE120358FE900079F0E5F0A3F0E9
:1002A10012206EE5F0C39DFFEE9CFE8FF0121950F7
:1002B10090004C121E83900015121FD5743DC39FF0
:1002C100FF740A9EFE8FF012196A90004E121E836F
:1002D10090004E121FD590004C121FC9121E0B40E8
:1002E10005121F298008900048ECF0EDA3F01220C0
:1002F10041121EA2122031FFC374849F74CB8EF071
:1003010063F08095F05021900103E0701B90010390
:100311007401F09040A0E054F3FFF09040A274B754
:10032100F09040A5740BF022122031C394FFEE64CB
:100331008094BF5021900103E0B4011A900103E4BD
:10034100F09040A0E054F34408F09040A274AAF069
:100351009040A57412F022900064121E83900064F4
:10036100121FD5900066E0FAA3E0FBA3E0FCA3E036
:10037100FDC0E0C004C003C0028FF0EE12236DD0B7
:1003810002D003D004D005C005C004C003C002C020
:10039100E0C0F0C083C0828D828C838BF0EA122290
:1003A1003FFFE58124FCF581D002D003D004D005C4
:1003B100EF700302049C120A6590006AE0F50AA33B
:1003C100E0F50BA3E0F50CA3E0F50DC005C004C0FA
:1003D10003C002C00AC00BC00CC00D8D828C838B80
:1003E100F0EA12226AF8A9F0AE83AF82E58124FC1B
:1003F100F581D002D003D004D005C082C083C005EE
:10040100C004C003C002C0F0C000850FF0E50E12A9
:10041100236DF51085F011858312858213D000D0EC
:1004210001D002D003D004D005D006D007C005C04A
:1004310004C003C002C010C011C012C0138F828E4D
:100441008389F0E812223FFFE58124FCF581D00287
:10045100D003D004D005EF602DC00AC00BC00CC082
:100461000D8D828C838BF0EA12226AF8AE83AF8203
:10047100E58124FCF581900066E8121E83EEA3F06D
:10048100EFA3F0020581900066E510F0E511A3F0FD
:10049100E512A3F0E513A3F0020581120A659000AD
:1004A1006EE0F510A3E0F511A3E0F512A3E0F5135A
:1004B100C005C004C003C002C010C011C012C013E7
:1004C1008D828C838BF0EA12212DF8A9F0AE83AFD7
:1004D10082E58124FCF581D002D003D004D005C08F
:1004E10082C083C005C004C003C002C0F0C0008543
:1004F1000FF0E50E12236DF50A85F00B85830C854F
:10050100820DD000D001D002D003D004D005D00696
:10051100D007C005C004C003C002C000C001C006AE
:10052100C007850D82850C83850BF0E50A12223FF9
:10053100FFE58124FCF581D002D003D004D005EF82
:10054100602CC010C011C012C0138D828C838BF03F
:10055100EA12212DFCAE83AF82E58124FCF5819066
:100561000066EC121E83EEA3F0EFA3F08012900060
:1005710066E50AF0E50BA3F0E50CA3F0E50DA3F0A9
:10058100900066121FBDF5828E838DF0EC022379F7
:10059100122028900029121FC9121E0B40030206C7
:1005A1006390002BE0FEA3E04E6003020663740635
:1005B1002DFDE43C900029F0EDA3F0900044E070A3
:1005C10017900035E0FEA3E02405FFE43E121F2151
:1005D100122053121EE08016900035E0FEA3E024A5
:1005E100FBFFEE34FF121F21122053121EE01220D6
:1005F10028900029E0FCA3E0121E0B405490002B30
:10060100E4F004A3F0900F5CE4F074CCA3F0900F3D
:1006110062E4F074A3A3F0900F5EE4F0A3F0900FF6
:1006210060F0A3F0122028900F64121E61900F66F3
:10063100E4F0A3F0900F687410F07441A3F0900FF0
:100641006A740BF003A3F090003574FEF07455A3A7
:10065100F0122053121F1890002F7410F074EDA3A4
:10066100F0229040BC121FD590002D121E9C12202A
:100671001F90002FE0FCA3E0C39FFFEC9E90003190
:10068100121E5C12201F90002F121E9C12201F743C
:1006910033C39FFF74119E900F60121E5C75C127BA
:1006A100E5C1FF20E7FA900F64121FD590002912CF
:1006B1001E9C900FA07407F0F4A3F0122016C3E45F
:1006C1009F74808EF063F08095F0503C122016905C
:1006D1000FA2121E6175C10AE5C1FF20E7FA900F52
:1006E100A6121FD5121F0F900063E0900062F0E484
:1006F100A3F0900FA6E0FF900FA5E0FC7D00EF2D89
:10070100FFE43C121F07804F122016C3E49FFFE451
:100711009E900FA2121E5C75C10AE5C1FF20E7FA87
:10072100900FA6121FD5121F0F900063E090006278
:10073100F0E4A3F0900FA6E0FF900FA5E0FC7D0090
:10074100EF2DFFE43C121F07900033121FD5C3E4C5
:100751009FFFE49E121F07900033121FD5900035B2
:10076100E0FCA3E02FFFEE3C121F21122053246472
:10077100FDE43EFC900037E0FAA3E0FBC3ED9BEC07
:1007810064808AF063F08095F05010EB249CFDEAC0
:1007910034FF900037F0EDA3F08029EF249CFDEEAB
:1007A10034FFFCC3EB9DEA64808CF063F08095F02C
:1007B100500F74642BFBE43A900037F0EBA3F08008
:1007C10003121F1812204A121EE0227408B51402E7
:1007D10080012290003DE0702B122041C39431EE44
:1007E10064809488500E741E2FFFE43E90004812DE
:1007F1001E5C800A9000487408F07431A3F0122046
:1008010041121EA2122039FFBE0016BF28139040CC
:10081100747402F07490A3F0904076E4F004A3F0B5
:1008210022BE0020BF1E1D90407AE4F07415A3F093
:100831009040747405F07420A3F0904076E4F07455
:1008410007A3F022BE0020BF141D90407AE4F0748B
:100851002AA3F09040747406F07468A3F090407677
:10086100E4F0740CA3F022C3740A9FE49E401F902D
:100871000045E070199040747407F074B0A3F090D3
:100881004076E4F0740EA3F09000457401F02290DC
:100891004039E04440FFF07401B51403020932E528
:1008A1001470030209329040D4121FD512206E1227
:1008B1001E249000D77432F08FF0EE12198490004C
:1008C1001F121E839040AEE0FEA3E025E0FFEE3351
:1008D100FEEF2FFFEE33FE900057121FC9121E24A8
:1008E1009000D77432F08FF0EE12198490005712F5
:1008F1001E837408B514479040D8E0FEA3E025E0BC
:10090100FFEE3390001B121E5C90001B121FD5904E
:10091100001D121FC99000D2ECF0EDA3F09000D49D
:10092100741EF08FF0EE12191E90001D121E8380AE
:100931000D90001FE4F0A3F090001DF0A3F0900FC4
:10094100EE121FD5900077EEF0EFA3F09000881221
:100951001FC9C39FEC9E500FEFC39D900078F0EE2E
:100961009C122363F08007900077E4F0A3F09000DD
:1009710077E0FEA3E0FF900015121FC9121E24901C
:1009810000D77420F08FF0EE121984900015121E1A
:1009910083900FF6121FD5122099FD121E2490008C
:1009A100D77432F08FF0EE121984900013121E8367
:1009B100900FDE121FD5900019121FC9121E24902C
:1009C10000D77432F08FF0EE121984900019121EC4
:1009D10083122031FF900023121FC9121E249000A0
:1009E100D77432F08FF0EE121984900023121E8317
:1009F1009040B8121FD5900025121FC9121E2490D5
:100A010000D77432F08FF0EE121984900025121E77
:100A11008312190F900061F0120181121549120120
:100A21008D1207CC122039FF4E60091220A19000CF
:100A31005D121E9C900011E0FF60061F900011EFF7
:100A4100F0900012E0FF60061F900012EFF090009E
:100A5100EFE0FF60061F9000EFEFF07405B514039F
:0F0A610002059122900064E0F50EA3E0F50F224C
:01273A00009E
:100A7000C0E0C007C006C0D075D000E5DBFF30E0A5
:100A80000FE5DBFF30E10675150453DBFD53DBFE9C
:100A9000D0D0D006D007D0E032C0E0C082C083C042
:100AA00007C0D075D000E5D26013900076E0FFBF9C
:100AB0000108900076E4F043C90175D200D0D0D08F
:100AC00007D083D082D0E032C0E0C082C083C007AC
:100AD000C006C0D075D000904061E030E50690407F
:100AE0006174C2F0904061E030E409904061E044FC
:100AF0008054EFF0D0D0D006D007D083D082D0E0A1
:100B000032C020C0E0C0F0C082C083C007C006C0B1
:100B100005C004C003C002C001C000C0D075D00031
:100B20007E00E5B6FF30E0061219B643B204E5B622
:100B3000FF30E10353B6FDE5B6FF30E30353B6F7EC
:100B4000E5B6FF30E20353B6FBE5B6FF30E40353EE
:100B5000B6EFD0D0D000D001D002D003D004D00561
:100B6000D006D007D083D082D0F0D0E0D02032C0E1
:100B7000E0C082C083C007C006C0D075D000E59D2C
:100B8000FF30E703539D7FE59DFF30E62E90001078
:100B9000E07025900004E5A5F0E5A4A3F09000081E
:100BA000E5A7F0E5A6A3F09000107401F0900072A4
:100BB000E4F0A3F0A3F0A3F0539DBFE59DFF30E563
:100BC0002E900010E07025E590FF30E10F900004BA
:100BD000740FF074A0A3F0121F32800A900004E496
:100BE000F0A3F0121F329000107401F0539DDFD07B
:100BF000D0D006D007D083D082D0E032C0E0C0820F
:100C0000C083C007C006C0D075D000904061E030FE
:100C1000E70C750801904061E04410547FF0D0D09B
:100C2000D006D007D083D082D0E032C0E0C007C069
:100C300006C0D075D000E5D7FF30E70D7404B514B9
:100C400002800375150153D77FD0D0D006D007D0CE
:100C5000E032E515600375140AE51424F45003022C
:100C60000D72E514240B83F582E514241083F583BB
:100C7000E4738AAF727272ED0C724149604C0C0CD5
:100C80000D0D0D0C0D0D0D0D0D0D1212509000904F
:100C9000E0FFBF01028001227401B5090280012238
:100CA000751401900090E4F090008EF0A3F022E51E
:100CB00009700475140922900090E0FFBF010280C2
:100CC000012212126D900044E0700C90005F74FFDE
:100CD000F074EEA3F0800990005FE4F0740DA3F0CF
:100CE00075140590005DE4F07414A3F022E509701A
:100CF0000475140922120EEC1220394E700475147A
:100D00000622900029121FD5121ED72290003CE027
:100D1000FFBFB00122BFC01F90005D121FCF4D600A
:100D2000030210FF90005DE4F07432A3F07514012B
:100D300090003C74A0F022BFA03B12105475140820
:100D400022E5097030751409220210D01220394EA4
:100D50007023C2FF904062E054DFFFF07514002260
:100D6000E5157003F51422904062E054DFFFF0C2F5
:100D7000FF2275140022121EE9904062E0547FFFAA
:100D8000F054DFFFF04420FFF090409FE054DFFF7D
:100D9000F04410FFF04408FFF09040D874FFF0904A
:100DA00040A0E4F09040A1F0904090F0A3F090407B
:100DB00092F0A3F09040CCF0A3F09040AAF0A3F002
:100DC0009040A8F0A3F09040ACF09040AE7402F0D8
:100DD0007422A3F09040AD7404F0904082E4F0A33C
:100DE000F0904084F0A3F0904086F0A3F09040B0E3
:100DF000744CF074CCA3F09040B274B3F07434A38C
:100E0000F09040B4747EF074B7A3F09040B6748153
:100E1000F07449A3F090408C7401F07408A3F09032
:100E2000408E7401F0F4A3F09040887402F0747D59
:100E3000A3F090408AE4F0A3F09040A1E0547FFF3B
:100E4000F0904078746CF074CBA3F090407AE4F0AA
:100E5000740AA3F090409FE04402FFF090409EE0AF
:100E60004420FFF09040807405F07455A3F090404A
:100E70007EE4F07480A3F09040A37441F09040A011
:100E8000E04401FFF0900044E0700A904062E054BA
:100E9000BFFFF08008904062E04440FFF09040A027
:100EA000E054F34408F09040A57412F09040A2740E
:100EB000AAF09040A1E054DFFFF0900090E0FFBF67
:100EC00001119040A1E054F3FFF012205C9040A685
:100ED000121E619040A1E054FEFFF054FDFFF0901F
:100EE0004062E04480FFF04408FFF02290007BE085
:100EF00030E2012290007BE04404F0120D76904035
:100F000074E4F0A3F0904076F0A3F09040D4F0A306
:100F1000F09040A1E04401FFF04402FFF090001384
:100F2000121FD5C394B8EE648094AC505974192F35
:100F3000FD74DF3EFC8DF012236DC0E0C0F0C08375
:100F4000C08290CAAF75F09574BE12213BFAABF027
:100F5000AC83AD82E58124FCF5817445C0E07482E8
:100F6000C0E07408C0E0E4C0E0EA12226AFAABF024
:100F7000AC83AD82E58124FCF581EA1223799000EF
:100F800027121E6D805774482FFF74D33EFE8FF0DA
:100F900012236DC0E0C0F0C083C082906C7875F001
:100FA0005D74BD12213BFCADF0AE83AF82E58124C0
:100FB000FCF5817445C0E0744CC0E074C0C0E0E44E
:100FC000C0E0EC12226AFCADF0AE83AF82E5812472
:100FD000FCF581EC122379900027121E6D900029F8
:100FE000E4F0A3F09040BAF0A3F0904070740712C0
:100FF0001E6790407C7419F07499A3F0904094742B
:1010000007121E679040967419F07499A3F090002F
:1010100044E0701690003574F3F07434A3F090003F
:101020003774F3F07434A3F080149000357409F031
:101030007475A3F09000377409F07475A3F09000F4
:101040002BE4F0A3F0122053121EE0D2FF12205323
:10105000121EE022120D76D2FF12204A121EE0125A
:10106000204AEE24F09040CE121E5C904090E4F0B6
:10107000A3F090004804F07406A3F0900029121F1A
:10108000D5121ED7121ECC121EC1121EB6121EABD6
:10109000904074E4F0A3F0904076F0A3F09040828A
:1010A000F07402A3F0904084E4F07414A3F0904034
:1010B00086E4F0743DA3F09040A0E0548F4450F0DB
:1010C00090005DE4F0748CA3F0122041121EA22265
:1010D000122080C394FFEE648094AFE433FF700964
:1010E00090005D121FCF4D7015EF6012C2FF1210FD
:1010F000FF75140B90005D740FF074A0A3F022D262
:10110000FF904062E054DFFFF054F7FFF04480FFAF
:10111000F090405CE4F07415A3F090405EE0FEA314
:10112000E02404FFE43E904058121E5C2290007BB5
:10113000E4F090004404F090007E121E8990008438
:10114000121E8990008A121E89900008F0A3F012E6
:1011500020A7E4C0E0740FC0E0E4C0E09000C375D5
:10116000F00012238D158115811581221220A79080
:1011700000A97446F074E3A3F09000AB741BF07404
:1011800091A3F09000B77447121E679000B97403E2
:10119000F07433A3F090007BE4F090003DF09000F9
:1011A0003BF0900045F090003C74A0F02290403954
:1011B000E04440FFF0904039E0FF7E0020E6F690EA
:1011C0000FE0121FD553067F5307F8121FDB2FFDC8
:1011D000EE3CFCE43BFBE43A121F3D90008A121FF8
:1011E000BDEEC4CFC4540F6FCF540FCF6FCFFEED01
:1011F000C454F04EFEECC4CDC4540F6DCD540FCD8D
:101200006DCD30E30244F0900088121E9C12205CE9
:10121000121FDBFDEE3395E0F8F9EDC39FFDEC9E68
:10122000FCEB99FBEA98121F3D90008E121FD5121D
:101230001E1E90008E121E9C90008E121FD5C3742D
:10124000E8121DF250099000907401F0021522225C
:1012500090007BE020E01590007BE04401F0C2FFAD
:10126000904062E054DFFFF0547FFFF02202116CE7
:10127000E5157034900061E0FFBF960040239000B8
:10128000BF121FD5C39410EE9427500A121E1E9051
:1012900000BF121E9C229000BFE4F0A3F075150859
:1012A000229000BFE4F0A3F022E5157041900019F0
:1012B000121FD5C374299F748C8EF063F08095F053
:1012C00040259000C1121FD5C394E8EE9403500C42
:1012D0000FBF00010E9000C1121E9C229000C1E4BD
:1012E000F0A3F0751507229000C1E4F0A3F022905E
:1012F00000A7121FD5C39432EE9400500A121E1E8E
:101300009000A7121E9C22E5156001229000A912F0
:101310001FD5122099FDC3EF9DEE9C502012209006
:10132000121E1E121F6F122090C39464EE94004090
:101330001890009FE4F0A3F0751503800C12209024
:101340004E60061220A1121F6F9000AB121FD51223
:101350002099C39FEC9E5020122088FF121E1E125F
:101360001F66122088C39464EE940040189000A178
:10137000E4F0A3F075150422122088FF4E600612D7
:1013800020A1121F6622900057121FD5F5F0EE1211
:101390002382FCADF0AE83AF8290001FE0FAA3E0A1
:1013A000FBC007C006C0F0C004F5F0EA12236DF8D8
:1013B000A9F0AA83AB82D004D005D006D007C00420
:1013C000C005C006C007122463FCAE83AF82E5816E
:1013D00024FCF581900104ECF0E5F0A3F0EEA3F01D
:1013E000EFA3F07408B5140280030214D99000AD85
:1013F000121FD5121DFD500A121E1E9000AD121EA6
:101400009C22900057121FD5C3945EEE9401502F7A
:10141000122080FFC3745B121DF25023122077123A
:101420001E1E121F5D122077121DFD401E9000AF80
:10143000E4F0A3F07515069000BB740EF0800C125A
:1014400020774E60061220A1121F5D9000B9121F76
:10145000D512206E121E0B40149000B7121FD5C378
:101460009DEE64808CF063F08095F050231220652F
:10147000121E1E121F54122065121DFD401E9000E8
:10148000B3E4F0A3F07515069000BB7415F0800C62
:101490001220654E60061220A1121F5490003DE0FC
:1014A000702F9000B5121FD5121E1E9000B5121E8F
:1014B0009C9000B5E0FEA3E0C39488EE94134061D5
:1014C0009000B5E4F0A3F07515069000BB741FF012
:1014D000229000B5E4F0A3F0227407B5143C90000C
:1014E000BC121FD5C39488EE9413500B121E1E908D
:1014F00000BC121E9CB2829000BCE0FEA3E0121D54
:10150000FD401E9000BCE4F0A3F07515069000BBF2
:101510007429F09000BE7404F0229000BCE4F0A3A3
:10152000F022900090E0FFBF011E12205CC3945295
:10153000EE648094B8400E74AC9F74C78EF063F074
:101540008095F05003751509221212701212A9121B
:1015500012EF121386021558740AB5140280012284
:10156000900013121FD5C374799F74A18EF063F09D
:101570008095F05043C3EF94F3EE648094C25038EA
:101580007404B5150280057403B5152C9000C312C0
:101590001FD5C394F4EE9401500B121E1E9000C38D
:1015A000121E9C801A9000CDE0FF0FEFF09000C358
:1015B000E4F0A3F0F51580079000C3E4F0A3F07405
:1015C00008B51537900061E0FF2482402E9000CED0
:1015D000E0FFBF050050249000C7E0FDA3E0FE122D
:1015E0001E045008121E18121F4B800F0F9000CEC1
:1015F000EFF09000C7E4F0A3F0F5157407B5153EC1
:10160000900019121FD5C3949CEE6480948D402ED7
:101610009000CEE0FFBF050050249000C7E0FDA37E
:10162000E0FE121E045008121E18121F4B800F0FEE
:101630009000CEEFF09000C7E4F0A3F0F51574052C
:10164000B5152F9000CFE0FFBF050050259000C5D5
:10165000121FCF121E04500B121E189000C5121E2E
:1016600096800F0F9000CFEFF09000C5E4F0A3F04C
:10167000F5157406B5152F9000D1E0FFBF05005099
:10168000259000CB121FCF121E04500B121E189073
:1016900000CB121E96800F0F9000D1EFF09000CB80
:1016A000E4F0A3F0F5157402B5150280057401B5D8
:1016B000152E9000D0E0FFBF050050249000C91205
:1016C0001FCF121E04500A121E189000C9121E9637
:1016D000220F9000D0EFF09000C9E4F0A3F0F515D0
:0116E00022E7
:04273B00000000009A
:1016E100904051E04401FFF04408FFF04410FFF046
:1016F1004420FFF04480FFF0904052E04410FFF09E
:10170100904051E04440FFF0904036121FD543060F
:101711008843079F904036121E61904039E0442073
:10172100FFF04404FFF054FDFFF04480FFF02290ED
:101731004052E04402FFF04401FFF0904051E04488
:1017410080FFF090404EE054EFFFF04401FFF09035
:101751004034E054FBFFF04402FFF04401FFF0226B
:10176100904051E04480FFF053D6BF53D6DF904004
:1017710035E04480FFF054BFFFF090404B74F9F026
:1017810043D60853D9FB53D9EF43D90843D9024370
:10179100D90143D6102253D77F53D57F43D5404338
:1017A1008D02438D012290405E740BF074B8A3F05A
:1017B1009040607418F0904058E4F0A3F0121EE9D4
:1017C10075F80053F9FD53F9FE904061E054F7FFBD
:1017D100F054EFFFF04402FFF054FEFFF090405A46
:1017E1007401F07477A3F0538A7F438A409040617B
:1017F100E054FBFFF0904062E054DFFFF04404FF4F
:10180100F04480FFF054EFFFF04401FFF090401DE1
:10181100E04410FFF090401EE054EFFFF02243FE41
:1018210004D2A243FD04D29243FC80D28743FC2020
:10183100D28543FC40C286904050E04408FFF0430B
:10184100FD08D29322900FA8741FF074FEA3F090AC
:101851000FAEE4F07420A3F0900FAAE4F0A3F0908F
:101861000FACF0A3F0900FB0F0A3F0900FB2F0A383
:10187100F0900FB47453F074F7A3F0900FB674FEA8
:10188100F074FAA3F022900F5C741FF074FEA3F0C1
:10189100900F627402F0748FA3F0900F5EE4F0A3D6
:1018A100F0900F60F0A3F0900F64F0A3F0900F663A
:1018B100F0A3F0900F68747EF074B7A3F0900F6AF4
:1018C100E4F0A3F022900F48740F121E67900F4AA4
:1018D100E4F0A3F0900F4CF0A3F0900F4E04F074DD
:1018E10047A3F0900F50E4F0A3F0900F52F0A3F053
:1018F100900F54F0A3F0900F5674F5F07456A3F0C6
:101901002290402FE04480FFF04440FFF0229040BD
:0D19110048E02408F582E43401F583E0226B
:10273F004647484A4B4C4D4F505152535456575899
:10274F00595B5C5D5F60616364656668696B6C6E45
:10275F006F707273757678797B7C7E8081838486C7
:0F276F0088898B8D8E9092949597989A9C9EA0B6
:10191E00FE9000D4E03395E0E0900FD0F0E4A3F019
:10192E00121EFD9000D2E0FEA3E0FF121EF475C160
:10193E000EE5C1FF20E7FA900FD4E0FEA3E0F5F02C
:10194E00EE22900FAC121E6D75C117E5C1FF20E798
:10195E00FA900FB0E0FEA3E0F5F0EE22900F6012C9
:10196E001E6D75C127E5C1FF20E7FA900F64E0FEFA
:10197E00A3E0F5F0EE22FE9000D7E03395E0E09084
:10198E000FD0F0E4A3F0121EFD9000D5E0FEA3E010
:10199E00FF121EF475C10EE5C1FF20E7FA900FD4B9
:1019AE00E0FEA3E0F5F0EE2274C055B5FF600FBF68
:1019BE004003021AB7BF8003021B9F021C84900EC5
:1019CE00CAE0FF5307809000F0EFF0900ECAE0FFE0
:1019DE005307409000F1EFF0900ECAE0FF53070F4F
:1019EE009000F2EFF09000F0E07003021A47121F21
:1019FE00B1900EC9E07E0012210A122007121D6955
:101A0E00121FA2900EC8E0FF1220E8122007121D2E
:101A1E0069121FA2900EC7E0FF1220C112200712FA
:101A2E001D69121FA2900EC6E0FF121E3C12200767
:101A3E00121D69121FA2021A71121F96900EC9E092
:101A4E00FF12211D121FF8EE3395E0121D76121FA4
:101A5E0087900EC8E0C4035407FF121FE9121D81C0
:101A6E00121F78900EC5E09000FBF0900EC4E0902F
:101A7E0000FCF0900EC3E09000FDF0900EC2E090DE
:101A8E0000FEF0900EC1E09000FFF0900EC0E090CE
:101A9E000100F0900EBFE0900101F0900EBEE090BC
:101AAE000102F0121C88021C84900EBDE0FF530749
:101ABE00809000F0EFF0900EBDE0FF5307409000D5
:101ACE00F1EFF0900EBDE0FF53070F9000F2EFF034
:101ADE009000F0E07003021B32121FB1900EBCE0BA
:101AEE007E0012210A122007121D69121FA2900EEB
:101AFE00BBE0FF1220E8122007121D69121FA290F0
:101B0E000EBAE0FF1220C1122007121D69121FA289
:101B1E00900EB9E0FF121E3C122007121D69121F13
:101B2E00A2021B5C121F96900EBCE0FF12211D122A
:101B3E001FF8EE3395E0121D76121F87900EBBE054
:101B4E00C4035407FF121FE9121D81121F78900E55
:101B5E00B8E09000FBF0900EB7E09000FCF0900E15
:101B6E00B6E09000FDF0900EB5E09000FEF0900E05
:101B7E00B4E09000FFF0900EB3E0900100F0900EF4
:101B8E00B2E0900101F0900EB1E0900102F0021C63
:101B9E0084900EB0E0FF5307809000F0EFF0900EAF
:101BAE00B0E0FF5307409000F1EFF0900EB0E0FF71
:101BBE0053070F9000F2EFF09000F0E07003021C5C
:101BCE001A121FB1900EAFE07E0012210A122007EA
:101BDE00121D69121FA2900EAEE0FF1220E8122015
:101BEE0007121D69121FA2900EADE0FF1220C11246
:101BFE002007121D69121FA2900EACE0FF121E3CB0
:101C0E00122007121D69121FA2021C44121F969069
:101C1E000EAFE0FF12211D121FF8EE3395E0121DDC
:101C2E0076121F87900EAEE0C4035407FF121FE911
:101C3E00121D81121F78900EABE09000FBF0900EFB
:101C4E00AAE09000FCF0900EA9E09000FDF0900E3E
:101C5E00A8E09000FEF0900EA7E09000FFF0900E2E
:101C6E00A6E0900100F0900EA5E0900101F0900E1C
:101C7E00A4E0900102F043B20422E5B3FF30E3FA90
:101C8E009000F2E0FF9000F1E0FE9000F0E04E4296
:101C9E0007900ED7EFF09000F0E0604C9000F3E06C
:101CAE00FCA3E0FFEC121E2D900ED6EFF09000F389
:101CBE00E0FCA3E0FDA3E0FFED121E2D900ED5EF8C
:101CCE00F09000F5121FD5EEC403CFC40354076F76
:101CDE00CF5407CF6FCF900ED4EFF09000F6E0C444
:101CEE0054F0900ED3F0802F9000F9121FD5EEC451
:101CFE0023CFC423541F6FCF541FCF6FCF900ED658
:101D0E00EFF09000FAE0C42354E0900ED5F0900E60
:101D1E00D4E4F0900ED3F09000FBE0900ED2F09051
:101D2E0000FCE0900ED1F09000FDE0900ED0F0900F
:101D3E0000FEE0900ECFF09000FFE0900ECEF090FF
:101D4E000100E0900ECDF0900101E0900ECCF090ED
:101D5E000102E0900ECBF043B20122E84204E942C8
:101D6E0005EA4206EB42072242024203EE4204EF2C
:101D7E00420522430300430400430500EF420622BE
:101D8E00FE90401EE04420FDF07D00EECD5401A2F9
:101D9E00E0CD13CD13CDFCE5F0C3134DFDE5F003FF
:101DAE005480FEE4FFC0E0C0E07403C0E074E8C0FD
:101DBE00E07582008E838DF0EC12230CE58124FCFD
:101DCE00F58174FCC3958274FF9583904027F0755E
:101DDE00C980904026E04401FFF022904026E04466
:101DEE0001FFF0229F74838EF063F08095F022C382
:101DFE0094B8EE940B22C39488ED941322C39FECF7
:101E0E0064808EF063F08095F0220EBE00010D22EC
:101E1E000FBF00010E229000D5ECF0EDA3F022C40E
:101E2E0003CFC40354076FCF5407CF6FCF22E4FD07
:101E3E00C4CFC4540F6FCF540FCF6FCFFEE44EFEFE
:101E4E00E4CDC4540F6DCD540FCD6DCDFC22F0EF0B
:101E5E00A3F022EEF0EFA3F022F074FFA3F022F035
:101E6E00E5F0A3F022743EF074D1A3F074B5A3F0A4
:101E7E007474A3F022F0E5F0A3F022E4F0A3F07462
:101E8E003FA3F074FFA3F022EDF0EEA3F022EEF0EC
:101E9E00EFA3F022904092EEF0EFA3F02290409646
:101EAE007402F0748FA3F022904094740AF074655B
:101EBE00A3F02290407C7402F0748FA3F022904025
:101ECE0070740AF07465A3F0229040B8EEF0EFA3A0
:101EDE00F0229040CCEEF0EFA3F02290405C740A1A
:101EEE00F074BFA3F022900FD4EEF0EFA3F0229087
:101EFE000FD2EEF0E5F0A3F022900033F0EFA3F056
:101F0E0022900062EEF0EFA3F022900037EEF0EF99
:101F1E00A3F022900035F0EFA3F022900048EEF0EF
:101F2E00EFA3F022900008740FF074A0A3F022909B
:101F3E00008AF0EBA3F0ECA3F0EDA3F0229000C723
:101F4E00EDF0EEA3F0229000B3EEF0EFA3F02290AE
:101F5E0000AFEEF0EFA3F0229000A1EEF0EFA3F0B1
:101F6E002290009FEEF0EFA3F0229000F7EBF0EC42
:101F7E00A3F0EDA3F0EEA3F0229000F7EAF0EBA3AE
:101F8E00F0ECA3F0EDA3F0229000F7E4F0A3F0A3A1
:101F9E00F0A3F0229000F3ECF0EDA3F0EEA3F0EF3F
:101FAE00A3F0229000F3E4F0A3F0A3F0A3F022E05C
:101FBE00FCA3E0FDA3E0FEA3E0FF22E0FCA3E0FD16
:101FCE0022E0FDA3E0FE22E0FEA3E0FF2290008AC5
:101FDE00E0FAA3E0FBA3E0FCA3E0229000F7E0FB15
:101FEE00A3E0FCA3E0FDA3E0FE229000F7E0FAA33D
:101FFE00E0FBA3E0FCA3E0FD229000F3E0F8A3E0F9
:10200E00F9A3E0FAA3E0FB22900031E0FEA3E0FF8B
:10201E002290002DE0FEA3E0FF22900027E0FEA319
:10202E00E0FF229040BAE0FEA3E02290005DE0FEC9
:10203E00A3E022900048E0FEA3E0FF22900037E0EC
:10204E00FEA3E0FF22900035E0FEA3E0FF22900009
:10205E0088E0FEA3E0FF229000B3E0FEA3E0FF22A3
:10206E0090001FE0FCA3E0FD229000AFE0FEA3E095
:10207E00FF2290001FE0FEA3E0229000A1E0FEA34D
:10208E00E02290009FE0FEA3E0FF22900013E0FC10
:10209E00A3E0221FBFFF011E22E4C0E07432C0E0A5
:1020AE00E4C0E090009175F00012238D158115812A
:1020BE00158122E4FDC42354E0CDC423CD6DCD544F
:1020CE00E0CD6DFCE423541F4DFDE42354E0CFC45A
:1020DE0023CF6FCF54E0CF6FFE22E4FDCDC4235447
:1020EE00E0CDC423CD6DCD54E0CD6DFCEFC42354B3
:1020FE001F4DFDEFC42354E0FE7F0022FDE4235468
:10210E00E0CDC423CD6DCD54E0CD6DFC7F0022E437
:10211E000354F8CFC403CF6FCF54F8CF6FFE22F91C
:10212E00E58124FBF8E6B2E7F6E902226A1221DE27
:10213E00BC000302241BEF60FA30D502B2D1E58356
:10214E00B4FF03022431E582B4FF03022431258358
:10215E0040072482400B02241B24831450030224C4
:10216E0031F582EA8DF0A4A8F0EA8EF0A428F8E406
:10217E0035F0F9EB8DF0A428E935F0F9E433CA8F88
:10218E00F0A429F9EA35F0FAEBF88EF0A429F9EA71
:10219E0035F0FAE433FBEC8DF0A429F9EA35F0FAC8
:1021AE00E43BFBE88FF0A42AFAEB35F0FBE433CCEA
:1021BE00FD8EF0A42AFAEB35F0FBE43CFCED8FF03B
:1021CE00A42BFBEC35F0FC20E70312220C0223FAC1
:1021DE00AA82AB83A2F73392D1F5826002D2F7AC1A
:1021EE00F0E58124FCF8E6FD18E6FE1886F018E608
:0E21FE00A2F73392D5F5836002D2F7AFF0223C
:08006C00E478FFF6D8FD0174F1
:10220C007804EC7011E58224F8500AF582E4C9CA0E
:10221C00CBFCD8EF22EC7820058220E713D5820185
:10222C0022C3E933F9EA33FAEB33FBEC33FCD8EA9B
:03223C00158222E6
:100089007944E94400602A7A0190273A78037D018E
:10009900E493C0E0E582CBE583CC88828D83D0E010
:1000A900F0CBF582CCF583A308B800010DD9E1DACC
:0300B900DF01BCA8
:10223F00FFE58124FBF8EF1222E1D2D133E640050E
:10224F0030E708E42220E705740122C2D11222C32D
:10225F00E970012220D101B3E433221221DE79008B
:10226F00E583B58202800D5003122449E583C3959F
:10227F0082122588E5D0C465D020E117EA2DFAEB4C
:10228F003EFBEC3FFC50097401122588EC4480FCA6
:10229F000223FAC3EA9DFAEB9EFBEC9FFC500FC39F
:1022AF00E499F9E49AFAE49BFBE49CFCB2D1122284
:0422BF000C0223FAF0
:1000740078F7E8440E600C790F900000E4F0A3D800
:05008400FCD9FA01891E
:1022C3007901AA82E68F82B5821308E6B5F00E087B
:1022D300E6B5830908E68A82B58202790022B480D2
:1022E3000FE5F0700AE5837006E58270027F00EF68
:1022F300B6801508B6001008B6000B08B60006181D
:10230300181876002218181822AF82AE83ADF0FC9D
:10231300C2D530E70FD2D5E4C39FFFE49EFEE49D10
:10232300FDE49CFCA8811818E6FB18E6FA18E6F908
:1023330018E6F8E830E70FB2D5E4C39BFBE49AFA5A
:10234300E499F9E498F812262230D513FFE4C395F3
:1023530082F582E49583F583E495F0F5F0E49F221A
:10236300C5827002158314C58222FCABF07A007912
:1023730000748E0225511226BF8582F0E58322FC6C
:10238300ABF0E4FAF9748E02257EC016858116C07F
:10239300F0C083C08205810581A8160886020886DD
:1023A30003088604E51624FBF8E5162404F9E6F78A
:1023B30008E609F7E5162404F88606088607E516F5
:1023C3002404F80816B6FF021816EE4F60168AF0BA
:1023D3008B838C82E51624FDF8E612272EA3AB83AC
:1023E300AC8280D0A81608080886821886831886CF
:1023F300F0851681D01622B98003EA13B34010EAA0
:102403002401FAE43BFBE43CFC50047C800582BCE1
:10241300000EBB000BBA0008E4F5F0F583F5822249
:10242300A2D1E582138CF092F78B838A8222E4F5A2
:1024330083F58275F080F4A2D11322E4F583F5824B
:1024430075F0C0747F22E582C583F582A2D133A2E1
:10245300D592D11392D5ECCFFCEBCEFBEACDFA2289
:102463001221DE30D502B2D1BF000FBE000CBD0079
:1024730009BC000302243E022431BF8013BE0010B6
:10248300BD000DE583B47F08E582B4000302241286
:10249300BC0009BB0006BA000302241BE583B4FF9A
:1024A3000BE582B4FF0302243E02241BE582B4FF42
:1024B30003022431C395835007247F400B02241B5E
:1024C3002480145003022431F582C3ED9AEE9BEF6E
:1024D3009C40111582C3EA33F9EB33FAEC33FBE486
:1024E30033FC8005E4CCCBCAF9C08275F019C3E98B
:1024F3009DEA9EEB9FEC9400D5F002802D400EE9FF
:102503009DF9EA9EFAEB9FFBEC9400FCC3B3E8331E
:10251300F8E58233F582E58333F583C3E933F9EADA
:1025230033FAEB33FBEC33FC80C4B3E4F938FAE45D
:102533003582FBE43583FCD082500405827C801213
:10254300220C022412FCABF0AA83A982749EF582AA
:10255300C2D1EC30E716D2D1E9F42401F9EAF4341C
:1025630000FAEBF43400FBECF43400FC12220C020E
:0225730023FA49
:0300690002006C26
:0B00BC0075812012271A600302006605
:10257500FCABF0AA83A982749EC2D1F58212220C0B
:102585000223FA6040F82582500274FFF582E824A0
:10259500F8501ECCCBCAF9E4CC24F85014CBCAF9B8
:1025A500E4CB24F8500BCAF9E4CA24F850037900A7
:1025B5002224086010F8C3EC13FCEB13FBEA13FAB2
:1025C500E913F9D8F12202260C75F008758200EF9F
:1025D5002FFFEE33FECD33CDCC33CCC58233C58250
:1025E5009BED9AEC99E58298400CF582EE9BFEED09
:1025F5009AFDEC99FC0FD5F0D6E4CEFBE4CDFAE4D8
:10260500CCF9A882022657AF82AE83ADF0FCA88133
:102615001818E6FB18E6FA18E6F918E6F8B800A95E
:10262500B90062BA0034EC8BF084CFCECDFCE5F076
:10263500CBF97818EF2FFFEE33FEED33FDEC33FCCD
:10264500EB33FB10D703994004EB99FB0FD8E5E476
:10265500F9FA8F828E838DF0EC227818EF2FFFEE3A
:1026650033FEED33FDEC33FCC933C910D7059BE9C7
:102675009A4007EC9BFCE99AF90FD8E0E4C9FAE423
:10268500CCFB02265775F010EF2FFFEE33FEED332E
:10269500FDCC33CCC833C810D7079BEC9AE89940DA
:1026A5000AED9BFDEC9AFCE899F80FD5F0DAE4CD3C
:1026B500FBE4CCFAE4C8F902265712271CC3749E22
:1026C50095824039790012258830D126E9F4240114
:1026D500F582EAF43400F583EBF43400F5F0ECF41C
:1026E5003400700AE582458345F0700122E430E745
:1026F5000F22EC20E71489828A838BF02230D10ADD
:10270500E4F582F583F5F074802274FFF582F58394
:10271500F5F0747F22E422AA82AB83A2F73392D12B
:10272500F5826002D2F7ACF02230F607A882F622D5
:05273500F280FCF0221F
:00000001FF
