:06000000020069020C4D34
:03000B00020C766E
:03001300020C7C60
:03001B00020CAB29
:03002300020CE4E8
:01002B0032A2
:01003300329A
:01003B003292
:03004300020D5B50
:03004B00020DC7DC
:03005300020E4951
:01005B003272
:03006300020E7812
:0300C700750800B9
:0300DB00020066BA
:0300660002014D47
:1000DE00749F55DC4440F5DC22120120121F3412AD
:1000EE001FF4121EB3121F7C121F021220C5122003
:1000FE00FB121F6A538C7F438C40904061E044405A
:10010E00FFF0D2AF2212144F12149E751400751503
:10011E00002290404FE0547FFFF04440FFF0440433
:10012E00FFF04402FFF0904052E04420FFF043FF06
:10013E0020E04404FFF090404FE04411FFF0227E97
:10014E003A7F98EF24FFFDEE34FFFE8D074D70F3DE
:10015E001201131200E71200DE900092E0700512F9
:10016E0015538003120E9FE50860EE120A5A7508A9
:04017E000002016713
:1000CA00900079E4F0A3F090007BE4F0A3F07509C6
:0100DA000025
:1001820022FC30E716C3E49582FBE49583FAE495FA
:10019200F0F9E49CF88B828A8389F022900010E0C7
:1001A2007001229000061228C9900004E0FCA3E02E
:1001B2001225B91225D01225E440030202F91229B0
:1001C2002B90000AE0FCA3E01225B91225D01225DB
:1001D200E440030202F99000041228C990000012C0
:1001E200272812292B90000212272890000012289B
:1001F200C9EEC313CF13CFFE9000021228CF900195
:1002020003E4F0A3F09001051228458FF0EE1221CD
:10021200AC90000C12272290000C1228C990007991
:10022200122728C3743D9F740A9E5020C374329FC4
:1002320074739E40179000127414F0900011E070D5
:10024200319000117414F07509018026C3EF94F502
:10025200EE9408400874329F74739E5015900011FA
:100262007414F0900012E070099000127414F0758A
:1002720009007401B5090280030202F2C3747A9F75
:1002820074149E400C9000467409F07499A3F08097
:1002920066C3EF9484EE946B400A90004674271272
:1002A20027018053EF2486FFEE34EB8FF0122BA050
:1002B200C0E0C0F0C083C08290D0F775F0B2743E47
:1002C2001229B0FCE58124FCF5817445C0E0741963
:1002D200C0E07490C0E0E4C0E0EC122ADFFCE581EB
:1002E20024FCF581EC122B8B90004612272280070A
:1002F200900046E4F0A3F0900010E4F090000412A5
:1003020028C990000612272812292B90000A0227DA
:100312002802019E7407B5140280087408B51402FD
:1003220080012290003DE0FF6009BF010302040446
:10033200020491122981C374331225F5400302038A
:10034200C4900056E0FF0FEFF0FF24F540030204D3
:100352009190003D7401F01227AA12279F1227C024
:100362001227B512200712204812208790003CE085
:10037200FFBFB00F9000EFE0FEA3E01225C51227E9
:100382006E800D90001FE0FEA3E01225C512276EBD
:100392009040AEE4F0A3F090005BF004A3F0900074
:1003A2006A12270D90006E12270D9040921228C9F2
:1003B20012276512283D122960900FB012272802D9
:1003C2000491900013E0FEA3E024BEFFEE34D0C4FB
:1003D200CFC4540F6FCF540FCF6FCF30E30244F02E
:1003E200FE74222FFF74023E90001712271D900008
:1003F200171228C99040AE122728900056E4F00246
:10040200049190005B1228C912264090005B1227CB
:100412002890005BE0FEA3E0C39401EE9400500339
:1004220002049190005BE4F0A3F0900046E0FEA38A
:10043200E0F5F0EE12055FFE90007B1227221229F2
:1004420071FDE5F0C39DFFEE9C8FF01221489000F4
:100452004C1227229000151228C974DFC39FFF7423
:100462000F9E8FF012216290004E12272290004EB2
:100472001228C990004C1228CF12262D40051227AF
:1004820065800690004812284512296012279612AC
:10049200294EC374629F74A78EF063F08095F0506A
:1004A20060122981C374669F74968EF063F0809502
:1004B200F0502190011AE0701B90011A7401F09023
:1004C20040A0E054F3FDF09040A274B7F09040A534
:1004D200740BF0221225DC949440012290011AE060
:1004E200B4010280012290011AE4F09040A0E0548D
:1004F200F34408F09040A274AAF09040A57407F06B
:1005020022122981C374669F748E8EF063F08095E7
:10051200F0502190011AE0701B90011A7401F090C2
:1005220040A0E054F3FDF09040A274B7F09040A5D3
:10053200740BF0221225DC948C502190011AE0B445
:10054200011A90011AE4F09040A0E054F34408F03C
:100552009040A274AAF09040A57407F02290006423
:100562001227229000641228C9900066E0FAA3E0E4
:10057200FBA3E0FCA3E0C0E0C004C003C0028FF014
:10058200EE122B94D002D003D004D005C005C004D3
:10059200C003C002C0E0C0F0C083C0828D828C83E1
:1005A2008BF0EA122AB4FFE58124FCF581D002D057
:1005B20003D004D005EF700302069E120C42900095
:1005C2006AE0F50AA3E0F50BA3E0F50CA3E0F50D54
:1005D200C005C004C003C002C00AC00BC00CC00DDD
:1005E2008D828C838BF0EA122ADFF8A9F0E5812450
:1005F200FCF581D002D003D004D005C082C083C0F4
:1006020005C004C003C002C0F0C000850FF0E50EB3
:10061200122B94F51085F011858312858213D00078
:10062200D001D002D003D004D005D006D007C00537
:10063200C004C003C002C010C011C012C0138F8218
:100642008E8389F0E8122AB4FFE58124FCF581D07B
:1006520002D003D004D005EF602DC00AC00BC00C3D
:10066200C00D8D828C838BF0EA122ADFF8AE83AF45
:1006720082E58124FCF581900066E8122722EEA330
:10068200F0EFA3F002077F900066E510F0E511A3FA
:10069200F0E512A3F0E513A3F002077F120C4290DB
:1006A200006EE0F510A3E0F511A3E0F512A3E0F56A
:1006B20013C005C004C003C002C010C011C012C0E4
:1006C200138D828C838BF0EA1229A2F8A9F0E581BE
:1006D20024FCF581D002D003D004D005C082C083AF
:1006E200C005C004C003C002C0F0C000850FF0E521
:1006F2000E122B94F50A85F00B85830C85820DD0A2
:1007020000D001D002D003D004D005D006D007C05B
:1007120005C004C003C002C000C001C006C00785F6
:100722000D82850C83850BF0E50A122AB4FFE58160
:1007320024FCF581D002D003D004D005EF602CC098
:1007420010C011C012C0138D828C838BF0EA122963
:10075200A2FCAE83AF82E58124FCF581900066ECB9
:10076200122722EEA3F0EFA3F08012900066E50AB2
:10077200F0E50BA3F0E50CA3F0E50DA3F090006605
:100782001228B8F5828E838DF0EC022B8B1229226F
:100792009000291228CF12262D40030208619000F2
:1007A2002BE0FEA3E04E600302086174062DFDE417
:1007B2003C900029F0EDA3F0900044E07017900007
:1007C20035E0FEA3E02405FFE43E12275D12294531
:1007D2001227F38016900035E0FEA3E024FBFFEE23
:1007E20034FF12275D1229451227F31229229000A5
:1007F20029E0FCA3E012262D405490002BE4F004E3
:10080200A3F0900F5CE4F074CCA3F0900F62E4F0DC
:1008120074A3A3F0900F5EE4F0A3F0900F60F0A336
:10082200F0122922900F64122728900F66E4F0A399
:10083200F0900F687410F07441A3F0900F6A740B7B
:10084200F003A3F090003574FEF07455A3F0122962
:100852004512275490002F7408F07453A3F022908D
:1008620040BC1228C990002D122728122919900085
:100872002FE0FCA3E01225B990003112271D1229A6
:100882001990002F1227281229197499C39FFF74F7
:10089200089E900F6012271D75C127E5C1FF20E752
:1008A200FA900F641228C9900029122728900FA0ED
:1008B2007407F0F4A3F0122910122620503C1229DA
:1008C20010900FA212272875C10AE5C1FF20E7FA8E
:1008D200900FA61228C912274B900063E090006285
:1008E200F0E4A3F0900FA6E0FF900FA5E0FC7D00DE
:1008F200EF2DFFE43C122743804F122910C3E49FDF
:10090200FFE49E900FA212271D75C10AE5C1FF20C8
:10091200E7FA900FA61228C912274B900063E090C5
:100922000062F0E4A3F0900FA6E0FF900FA5E0FCB8
:100932007D00EF2DFFE43C1227439000331228C9BB
:10094200C3E49FFFE49E1227439000331228C9900C
:100952000035E0FCA3E02FFFEE3C12275D12294593
:100962002464FDE43EFC900037E0FAA3E0FBC3ED13
:100972009BEC1226165010EB249CFDEA34FF9000EB
:1009820037F0EDA3F08023EF249CFDEE34FFFCC38F
:10099200EB9DEA122607500F74642BFBE43A900099
:1009A20037F0EBA3F080031227541229340227F305
:1009B2007407B5140280012290003DE0702B1229C9
:1009C20060C3943DEE6480948A500E741E2FFFE43F
:1009D2003E90004812271D800A900048740AF07465
:1009E2003DA3F012296012279612293DFFBE001581
:1009F200BF28129040747403122707904076E4F0E7
:100A02007402A3F022BE0020BF1E1D90407AE4F0C3
:100A12007415A3F09040747406F07468A3F09040CB
:100A220076E4F07409A3F022BE0012BF140F9040C6
:100A32007AE4F0742AA3F012273802272EC3740A2C
:100A42009FE49E4012900045E0700C122738122756
:100A52002E9000457401F022904039E04440FFF0AE
:100A62007401B51403020B01E5147003020B01902B
:100A720040D41228C9122971FD9001001228459014
:100A820001027432F08FF0EE12217C90001F1227C7
:100A9200229040AEE0FEA3E025E0FFEE33FEEF2F12
:100AA200FFEE33FE9000571228CF90010012284526
:100AB2009001027432F08FF0EE12217C90005712F6
:100AC20027227407B514459040D8E0FEA3E025E044
:100AD200FFEE3390001B12271D90001B1228C990B5
:100AE200001D1228CF9000FD1228459000FF741EB1
:100AF200F08FF0EE12211890001D122722800D9027
:100B0200001FE4F0A3F090001DF0A3F0900FEE128E
:100B120028C990007712272890008A1228CFC39FF5
:100B2200EC9E500F900078EFC39DF0EE9C122B814B
:100B3200F08007900077E4F0A3F09000771228C9C4
:100B42009000151228CF90010012284590010274DE
:100B520020F08FF0EE12217C900015122722900FC8
:100B6200F61228C912299AFD900100122845900117
:100B7200027432F08FF0EE12217C900013122722C1
:100B8200900FDE1228C99000191228CF900100128E
:100B920028459001027432F08FF0EE12217C900011
:100BA200191227229040BA1228C99000231228CF86
:100BB2009001001228459001027432F08FF0EE127B
:100BC200217C9000231227229040B81228C990005D
:100BD200251228CF9001001228459001027432F0AC
:100BE2008FF0EE12217C900025122722122108900C
:100BF2000061F01203131219381203161209B2120D
:100C0200293DFF4E60091225BF90005D12272890F2
:100C12000011E0FF60061F900011EFF0900012E05B
:100C2200FF60061F900012EFF090015AE0FFE060B3
:100C320006EF1490015AF07405B5140312078F22BF
:0B0C4200900064E0F50EA3E0F50F2227
:012D7F000053
:100C4D00C0E0C007C006C0D075D000E5DBFF30E0C6
:100C5D000FE5DBFF30E10675150453DBFD53DBFEBD
:100C6D00D0D0D006D007D0E032108A02800032C03A
:100C7D00E0C082C083C007C0D075D000E5D260133C
:100C8D00900076E0FFBF0108900076E4F043C901C3
:100C9D0075D200D0D0D007D083D082D0E032C0E062
:100CAD00C082C083C007C006C0D075D0009040611F
:100CBD00E030E50690406174C2F0904061E030E4B0
:100CCD0009904061E0448054EFF0D0D0D006D007B9
:100CDD00D083D082D0E032C020C0E0C0F0C082C04E
:100CED0083C007C006C005C004C003C002C001C058
:100CFD0000C0D075D000E5A9FF30E606121B815368
:100D0D00A9BFE5A9FF30E5209000EDE4F07403A341
:100D1D00F09000E774FFF0A3F09000EFE4F0A3F083
:100D2D009000F104F053A9DFE5A9FF30E70353A9C3
:100D3D007FD0D0D000D001D002D003D004D005D0C8
:100D4D0006D007D083D082D0F0D0E0D02032C020A2
:100D5D00C0E0C0F0C082C083C007C006C005C0049B
:100D6D00C003C002C001C000C0D075D000E5B6FF01
:100D7D0030E0061221E043B204E5B6FF30E1035343
:100D8D00B6FDE5B6FF30E30353B6F7E5B6FF30E247
:100D9D000353B6FBE5B6FF30E40353B6EFD0D0D026
:100DAD0000D001D002D003D004D005D006D007D09A
:100DBD0083D082D0F0D0E0D02032C0E0C082C0839A
:100DCD00C007C006C0D075D000E59DFF30E70353C6
:100DDD009D7FE59DFF30E623900010E0701A900096
:100DED0004E5A5F0E5A4A3F0900008E5A7F0E5A6BD
:100DFD00A3F09000107401F0539DBFE59DFF30E509
:100E0D002E900010E07025E590FF30E10F9000046A
:100E1D00740FF074A0A3F012277D800A900004E4F3
:100E2D00F0A3F012277D9000107401F0539DDFD0D8
:100E3D00D0D006D007D083D082D0E032C0E0C082BF
:100E4D00C083C007C006C0D075D000904061E030AF
:100E5D00E70C750801904061E04410547FF0D0D04C
:100E6D00D006D007D083D082D0E032C0E0C007C01A
:100E7D0006C0D075D000E5D7FF30E70D7404B5146A
:100E8D0002800375150153D77FD0D0D006D007D07F
:100E9D00E032E51424F55003020FE2E514240B8330
:100EAD00F582E514240F83F583E473CEFBE227E28C
:100EBD003A6099A9D0B40E0E0F0F0F0F0F0F0F0F31
:100ECD000F1215F4E515600475140922900092E0D7
:100EDD00FFBF01028001227401B509028001227554
:100EED001401900092E4F0900090F0A3F022E5152B
:100EFD00600475140922E509700475140822900028
:100F0D0092E0FFBF010280012212161190005D7464
:100F1D0027F07410A3F075140322E5156004751401
:100F2D000922E50970047514082202129DE5156069
:100F3D000475140922E5097004751408221211575D
:100F4D0012293D4E7004751406229000291228C9ED
:100F5D000227CB90003CE0FFBFB00475140722BF01
:100F6D00C02090005DE0FDA3E04D600302142290CF
:100F7D00005DE4F07432A3F075140190003C74A090
:100F8D00F022BFA05312138D75140722E5156004CE
:100F9D0075140922E509704075140822E5156004E1
:100FAD00751409220213F8E515600475140922124F
:100FBD00293D4E7023C2FF904062E054DFFFF07573
:100FCD00140022E5157003F51422904062E054DF01
:100FDD00FFF0C2FF2275140022122855904062E0E6
:100FED00547FFFF054DFFFF04420FFF090409FE06E
:100FFD0054DFFFF04410FFF04408FFF09040D87428
:10100D00FFF09040A0E4F09040A1F0904090F0A34C
:10101D00F0904092F0A3F09040CCF0A3F09040AA55
:10102D00F0A3F09040A8F0A3F09040ACF09040AE4B
:10103D007402F07422A3F09040AD7404F0904082DD
:10104D00E4F0A3F0904084F0A3F0904086F0A3F07C
:10105D009040B0744CF074CCA3F09040B274B312C5
:10106D0027079040B4747EF074B7A3F09040B67427
:10107D0081F07449A3F090408C7401F07484A3F056
:10108D0090408EE4F0A3F09040887402F0747DA33C
:10109D00F090408AE4F0A3F09040A1E0547FFFF07F
:1010AD00904078746CF074CBA3F090407AE4F074B7
:1010BD000AA3F090409FE04402FFF090409EE04470
:1010CD0020FFF09040807404F07444A3F090407EB3
:1010DD00E4F07440A3F09040A304F09040A0E044ED
:1010ED0001FFF0900044E0700A904062E054BFFFB1
:1010FD00F08008904062E04440FFF09040A0E05442
:10110D00F34408F09040A274AAF09040A57412F038
:10111D009040A1E054DFFFF0900092E0FFBF01117D
:10112D009040A1E054F3FFF01229579040A61227EA
:10113D00289040A1E054FEFFF054FDFFF090406276
:10114D00E04480FFF04408FFF02290007DE030E2A3
:10115D00012290007DE04404F0120FE6904074E40B
:10116D00F0A3F0904076F0A3F09040D4F0A3F0906F
:10117D0040A1E04401FFF04402FFF012294EC39458
:10118D00B8EE648094AC504C74192FFD74DF3E8D15
:10119D00F0122B94C0E0C0F0C083C08290CAAF752E
:1011AD00F09574BE1229B0FAE58124FCF5817445E1
:1011BD00C0E07482C0E07408C0E0E4C0E0EA122A26
:1011CD00DFFAE58124FCF581EA122B8B90002712C2
:1011DD002722804A74482FFF74D33E8FF0122B9430
:1011ED00C0E0C0F0C083C082906C7875F05D74BDB6
:1011FD001229B0FCE58124FCF5817445C0E0744CE6
:10120D00C0E074C0C0E0E4C0E0EC122ADFFCE58170
:10121D0024FCF581EC122B8B9000271227229000D5
:10122D0029E4F0A3F09040BAF0A3F0904070740759
:10123D0012270190407C7419F07499A3F09040949A
:10124D0074071227019040967419F07499A3F090C9
:10125D000044E0701290003574F3122707900037A8
:10126D0074F312270780149000357409F07475A378
:10127D00F09000377409F07475A3F090002BE4F032
:10128D00A3F01229451227F3D2FF1229450227F3A5
:10129D0090007DE020E312904062E04480FFF090EA
:1012AD00007DE04408F0121AC912293D4E70030268
:1012BD00136D9000F1E0FFBF01028001229000EF5D
:1012CD001228C9C39467EE6480947E501A90005D15
:1012DD007407F074D0A3F090003C74C0F075140640
:1012ED0053DAFE53A9FE22C374331225F550339001
:1012FD0000461228CF12261164808CF063F0809581
:10130D00F0501F9000F2E0FDBD020990003C74B05A
:10131D00F07514069000F2E06001229000F2740165
:10132D00F0229000461228CF12261164808CF063B3
:10133D00F08095F0400A53DAFE53A9FE7514002291
:10134D0053DAFE53A9FE90003C74A0F0900044E0E7
:10135D0070051227E880031227DE7514050227D4C5
:10136D0053DAFE53A9FE90003C74A0F0900044E0C7
:10137D0070051227E880031227DE7514050227D4A5
:10138D00120FE6D2FF1229341227F3122934EE245C
:10139D00F09040CE12271D12283D90004804F074A5
:1013AD0047A3F09000291228C91227CB1227C0128B
:1013BD0027B51227AA12279F904074E4F0A3F0904E
:1013CD004076F0A3F0904082F0740AA3F012283317
:1013DD001228299040A0E0548F4450F090005DE415
:1013ED00F0748CA3F012296002279690001FE0FE86
:1013FD00A3E0C394FFEE648094AF400612293D4EE6
:10140D007012751400C2FF9040A0E4F0904062E0AD
:10141D0054DFFFF022D2FF904062E054DFFFF05422
:10142D00F7FFF04480FFF090405CE4F07415A3F0FA
:10143D0090405EE0FEA3E02404FFE43E904058029D
:10144D00271D90007DE4F0900044F0900080F0A303
:10145D00F0743FA3122701900086E4F0A3F0743FCF
:10146D00A312270190008CE4F0A3F0743FA3122780
:10147D0001900008F0A3F0E4C0E0740FC0E0E4C0F8
:10148D00E09000CF75F000122BAB15811581158101
:10149D0022900093E4F0A3F0900095F0A3F090005B
:1014AD0097F0A3F0900099F0A3F090009BF0A3F0BB
:1014BD0090009DF0A3F090009FF0A3F09000A1F09C
:1014CD00A3F09000A3F0A3F09000A5F0A3F090007E
:1014DD00A7F0A3F09000AB7446F074E3A3F0900076
:1014ED00AD741FF07481A3F09000C27447122701F0
:1014FD009000C47403F07433A3F09000C8E4F0A31B
:10150D00F09000AFF0A3F09000B2F0A3F09000B413
:10151D00F0A3F09000B6F0A3F09000B8F0A3F09017
:10152D0000BAF0A3F09000C8F0A3F09000CAF090BC
:10153D00007DF090003DF090003BF0900045F09064
:10154D00003C74A0F022904039E04440FFF0904000
:10155D0039E020E6F9900FE01228C953067F5307B2
:10156D00F81228D52FFDEE3CFCE43BFBE43A1227A4
:10157D008890008C1228B8FFEEC4CFC4540F6FCFE3
:10158D00540FCF6FCFFEEDC454F04EFEECC4CDC45E
:10159D00540F6DCD540FCD6DCD30E30244F090005E
:1015AD008A1227281229571228D5FDEE3395E0F817
:1015BD00F9EDC39FFDEC9EFCEB99FBEA9812278891
:1015CD009000901228C91226409000901227289062
:1015DD0000901228C9C374E81225F55009900092A5
:1015ED007401F01219112290007DE020E015900099
:1015FD007DE04401F0C2FF904062E054DFFFF05403
:10160D007FFFF02202149EE5157033900061E0FF1C
:10161D00BF960040229000CB1228C9C39410EE94BF
:10162D002750091226409000CB0227289000CBE4CA
:10163D00F0A3F0751508229000CBE4F0A3F022E59D
:10164D0015703E9000191228C9C374299F748C8E91
:10165D00F063F08095F040229000CD1228C9C3941C
:10166D00E8EE940350091226409000CD02272890F1
:10167D0000CDE4F0A3F0751507229000CDE4F0A3A2
:10168D00F0229000A91228C9C39432EE940050099B
:10169D001226409000A9022728E51560012290002E
:1016AD00AB1228C912299AFD1226119C502112291C
:1016BD0092FF122640122820122992C39464EE94B0
:1016CD000040199000A1E4F0A3F0751503800D12F0
:1016DD002992FF4E60061225BF1228209000AD12F0
:1016ED0028C912299AC39FEC9E502012298AFF12F5
:1016FD00264012281712298AC39464EE94004018CC
:10170D009000A3E4F0A3F07515042212298AFF4E70
:10171D0060061225BF122817227407B51402800126
:10172D00229000C81228C9C394B8EE940B500C1225
:10173D0026409000C81227280218D4900057E0FECA
:10174D00A3E0C394F4EE9401503C122981C374CCF0
:10175D009F74848EF063F08095F0502A30FF27122D
:10176D002979FF12264012280E122979C3942CEEE6
:10177D009401401F9000B6E4F0A3F075150690009B
:10178D00CA740EF0800D122979FF4E60061225BF26
:10179D0012280E9000C41228C9122971FD12262D8F
:1017AD00400F9000C2E0FEA3E0C39DEE122607504D
:1017BD0027122969FF122640122805122969C394A0
:1017CD00B8EE940B401F9000BAE4F0A3F075150627
:1017DD009000CA7415F0800D122969FF4E60061233
:1017ED0025BF1228059000211228C9122971122532
:1017FD00B99000BC12271D122981900021122728B3
:10180D009000BC1228C912262050109000481228B2
:10181D00CFC3948FEC6480948250099000BEE4F0A5
:10182D00A3F0804312261164808CF063F08095F054
:10183D00400A9000BE74FFF0A3F0802B900F801231
:10184D002728900F82E4F0A3F0122960900F8412E4
:10185D00272875C113E5C1FF20E7FA900F881228DC
:10186D00C99000BE122728900FC87407F074D0A33A
:10187D00F09000BE1228C9900FCA12272875C11604
:10188D00E5C1FF20E7FA900FCC1228C99000C012D5
:10189D0027289000C01228C9C374D09F74079E508A
:1018AD001E9000B1E0FF0FEFF0FFBFFA004018905F
:1018BD0000B1E4F07515069000CA7429F080089007
:1018CD0000B1E0FF1FEFF090003DE0702F9000AFF2
:1018DD001228C91226409000AF1227289000AFE0C1
:1018ED00FEA3E0C39488EE941340189000AFE4F08B
:1018FD00A3F07515069000CA741FF0229000AFE496
:10190D00F0A3F022900092E0FFBF011E122957C3F1
:10191D009499EE648094B9400E74659F74C68EF0F0
:10192D0063F08095F05003751509221216141216E6
:10193D004C12168F1217260219477409B51402801E
:10194D00012212294EC374799F74A18EF063F08029
:10195D0095F05043C3EF94F3EE648094C250387405
:10196D0004B5150280057403B5152C9000CF12280F
:10197D00C9C394F4EE9401500B1226409000CF127F
:10198D002728801A9000D9E0FF0FEFF09000CFE4E8
:10199D00F0A3F0F51580079000CFE4F0A3F07408E4
:1019AD00B51535900061E0FF2482402C9000DAE0FF
:1019BD00FFBF050050229000D31228C312260050FD
:1019CD000812263A1227FC800F0F9000DAEFF090E4
:1019DD0000D3E4F0A3F0F5157407B5153D9000198B
:1019ED00E0FEA3E0C3949CEE6480948D402C9000A7
:1019FD00DAE0FFBF050050229000D31228C3122653
:101A0D0000500812263A1227FC800F0F9000DAEFD3
:101A1D00F09000D3E4F0A3F0F5157405B5152F90F3
:101A2D0000DBE0FFBF050050259000D11228C31246
:101A3D002600500B12263A9000D11226FB800F0F74
:101A4D009000DBEFF09000D1E4F0A3F0F5157406F3
:101A5D00B5152F9000DDE0FFBF050050259000D794
:101A6D001228C3122600500B12263A9000D71226C8
:101A7D00FB800F0F9000DDEFF09000D7E4F0A3F0A6
:101A8D00F5157402B5150280057401B5152D90007C
:101A9D00DCE0FFBF050050239000D51228C31226AD
:101AAD0000500912263A9000D50226FB0F9000DC5B
:101ABD00EFF09000D5E4F0A3F0F51522C2FF9000F1
:101ACD00F1E4F09000E6F09000E7F0A3F09000E96B
:101ADD00F0A3F09000EBF0A3F09000EDF07403A3F1
:101AED00F09000EFE4F0A3F09000F2F09000F9F028
:101AFD00900044E09000FAF09000F3E4F0742BA312
:101B0D00F074F1A3F074A8A3F0904062E054DFFFED
:101B1D00F0121B24021B51904050E04438FFF0534B
:101B2D00FDF7749F55DA4460F5DA53DAE774FC5526
:101B3D00D64401F5D653D6F9C2AF9040AD7410F02E
:101B4D0043DA012253A9FE741F55A144E0F5A17497
:101B5D00FC55A14403F5A153A9FB53A91F53A1F3B0
:101B6D0043A918438B02438B01D2AFE4F5ABF5AA21
:101B7D0043A901229000E91228C99000EB122728F1
:101B8D009000E9E5ABF0E5AAA3F0740355D79000FA
:101B9D00FBF09000EB1228C9EE20E703021C6290C7
:101BAD0000E91228CF12262D4003021C4DC3ED94DF
:101BBD00F8EC6480947F4003021C239000E412280B
:101BCD00CFECC313CD13CDC313CD13CDFC9000E2D9
:101BDD00E0FAA3E0FB1226829000E0E0F8A3E0F922
:101BED00121E9E9000DEE0F8A3E0F9122675121E7B
:101BFD0095EB29FBEA38FAED2BFDEC3A9000E7F076
:101C0D00EDA3F09000FAE0700A9000EDE4F004A36B
:101C1D00F0800312284B9000FCE0FD24FC50059051
:101C2D0000FCE4F0ACAFADAE9000FCE0FB04F0EBDB
:101C3D002B24DEF582E43400F583122845021D2E97
:101C4D00E4F5ABF5AA9000E9F0A3F09000E714F0ED
:101C5D00A3F0021D2E1226204003021D279000E93D
:101C6D00E0FAA3E0FBC3EF9BEE1226164003021D24
:101C7D0013C374089B74808AF063F08095F0400361
:101C8D00021CEA9000E41228C9EEC313CF13CFC390
:101C9D0013CF13CFFE9000E2E0FAA3E0FB122682F1
:101CAD009000E0E0F8A3E0F9121E9E9000DEE0F84F
:101CBD00A3E0F9122675121E95EB29FBEA38FAEF0F
:101CCD002BFFEE3A9000E712271D9000FAE0700509
:101CDD0012284B80089000EDE4F004A3F09000FC76
:101CED00E0FF24FC50059000FCE4F0ACAFADAE90ED
:101CFD0000FCE0FF04F0EF2F24DEF582E43400F564
:101D0D0083122845801BE4F5ABF5AA9000E9F0A3FA
:101D1D00F09000E714F0A3F080079000EDE4F0A33D
:101D2D00F09000E6E0FF0FEFF09000F1E0600302AD
:101D3D001DBD9000ED1228C9BE0005BF0102800A2D
:101D4D00BE0005BF0202800280669000E7E0FEA3A0
:101D5D00E0C39458EE940050099000E7E4F07458F5
:101D6D00A3F09000F31228B8FF8C028D039000E7CA
:101D7D001228CF9001031227289001051228458BB8
:101D8D00F0EA1221ACFEAFF09000ED1228CFBC00AE
:101D9D0012BD020FC3E49FFDE49E9000EFF0EDA392
:101DAD00F080079000EFEE1227229000F17401F001
:101DBD009000F2E0FFBF01179000FBE0FFBF030FA3
:101DCD0053DAFE53A9FE121DDD9000F27402F022CB
:101DDD00120FE612283D904092F0A3F0900048F0CB
:101DED00A3F0904070744FF074FBA3F090407C749E
:101DFD003F122701904094744FF074FBA3F0904074
:101E0D0096743F122701904082E4F0740AA3F012F9
:101E1D0028331228299040A0E04410FFF054DFFF32
:101E2D00F04440FFF09040747440F07412A3F090B1
:101E3D0040767403F074C5A3F090407E7401F0A356
:101E4D00F090407A740DF07467A3F09000EF1228B3
:101E5D00C99040D41227289000FBE0FFBF031090DB
:101E6D0040CE743F1227019040CC743F1227019051
:101E7D00003DE4F090405C1228C943073F90405C60
:101E8D00122728D2FFD2AF22E51729F9E51638F827
:101E9D00228917E8C313C51713C517C313C5171325
:101EAD00C517F5162222904051E04401FFF0440879
:101EBD00FFF04410FFF04420FFF04480FFF090400D
:101ECD0052E04410FFF0904051E04440FFF090404C
:101EDD00361228C943068843079F9040361227289B
:101EED00904039E04420FFF04404FFF054FDFFF032
:101EFD004480FFF022904052E04402FFF04401FF85
:101F0D00F0904051E04480FFF090404EE054EFFFE0
:101F1D00F04401FFF0904034E054FBFFF04402FF29
:101F2D00F04401FFF02222904051E04480FFF05335
:101F3D00D6BF53D6DF904035E04480FFF054BFFF4D
:101F4D00F090404B74E5F043D60853D9FB53D9EFCD
:101F5D0043D90843D90243D90143D6102253D77F21
:101F6D0053D57F43D540438D02438D0122222290CC
:101F7D00405E740BF074B8A3F09040607418F0904C
:101F8D004058E4F0A3F012285575F80053F9FD53AD
:101F9D00F9FE904061E054F7FFF054EFFFF044027A
:101FAD00FFF054FEFFF090405A7401F07477A3F0E7
:101FBD00538A7F438A40904061E054FBFFF090408C
:101FCD0062E054DFFFF04404FFF04480FFF054EF73
:101FDD00FFF04401FFF090401DE04410FFF09040F1
:101FED001EE054EFFFF02243FE04D2A2904050E0D9
:101FFD004408FFF043FD08D29322900FA87417F008
:10200D0074FEA3F0900FAEE4F07410A3F0900FAA3D
:10201D00E4F0A3F0900FACF0A3F0900FB0F0A3F0AC
:10202D00900FB2F0A3F0900FB47429F074FBA3F0ED
:10203D00900FB674FFF0747DA3F022900F5C741FA7
:10204D00F074FEA3F0900F627402F0748FA3F09001
:10205D000F5EE4F0A3F0900F60F0A3F0900F64F02A
:10206D00A3F0900F66F0A3F0900F68747EF074B734
:10207D00A3F0900F6AE4F0A3F022900F48740F12B2
:10208D002701900F4AE4F0A3F0900F4CF0A3F090CD
:10209D000F4E04F07447A3F0900F50E4F0A3F090AE
:1020AD000F52F0A3F0900F54F0A3F0900F5674F56B
:1020BD00F07456A3F022222290404CE04408FFF029
:1020CD0090404DE054FEFFF0439C80439C40539C58
:1020DD00DF539CEF439C08539CFD439D10439D088B
:1020ED00539DFB539DFD539CFE439D012222904029
:1020FD002FE04480FFF04440FFF022904048E02460
:0A210D001BF582E43401F583E022A3
:102D80004647484A4B4C4D4F505152535456575852
:102D9000595B5C5D5F60616364656668696B6C6EFE
:102DA0006F707273757678797B7C7E808183848680
:0F2DB00088898B8D8E9092949597989A9C9EA06F
:1021170022FE9000FFE03395E0E0900FD0F0E4A3BB
:10212700F01228699000FD1228C912286075C10EA7
:10213700E5C1FF20E7FA900FD4E0FEA3E0F5F0EE4B
:1021470022900FAC12272275C117E5C1FF20E7FACD
:10215700900FB0E0FEA3E0F5F0EE22900F6012279B
:102167002275C127E5C1FF20E7FA900F64E0FEA3BF
:10217700E0F5F0EE22FE900102E03395E0E0900FEB
:10218700D0F0E4A3F01228699001001228C91228A0
:102197006075C10EE5C1FF20E7FA900FD4E0FEA3FA
:1021A700E0F5F0EE22900F8C1227229001031228FF
:1021B700C9900F8E1227289001051228C9900F90F9
:1021C70012272875C10BE5C1FF20E7FA900F94E0AD
:0821D700FEA3E0F5F0EE222268
:012DBF000A09
:1021DF002274C055B5FF600FBF40030222E1BF80DC
:1021EF00030223C90224AE900ECAE0FF530780906A
:1021FF000107EFF0900ECAE0FF530740900108EF80
:10220F00F0900ECAE0FF53070F900109EFF0900115
:10221F0007E070030222711228AC900EC9E07E0015
:10222F001226D812290112259312289D900EC8E06C
:10223F00FF1226B612290112259312289D900EC760
:10224F00E0FF12268F12290112259312289D900E5E
:10225F00C6E0FF12265512290112259312289D025E
:10226F00229B122891900EC9E0FF1226EB1228F242
:10227F00EE3395E01225A0122882900EC8E0C40319
:10228F005407FF1228E31225AB122873900EC5E0F6
:10229F00900112F0900EC4E0900113F0900EC3E085
:1022AF00900114F0900EC2E0900115F0900EC1E075
:1022BF00900116F0900EC0E0900117F0900EBFE065
:1022CF00900118F0900EBEE0900119F01224B202A6
:1022DF0024AE900EBDE0FF530780900107EFF09002
:1022EF000EBDE0FF530740900108EFF0900EBDE0E8
:1022FF00FF53070F900109EFF0900107E070030201
:10230F00235C1228AC900EBCE07E001226D8122956
:10231F000112259312289D900EBBE0FF1226B612D4
:10232F00290112259312289D900EBAE0FF12268FD5
:10233F0012290112259312289D900EB9E0FF122643
:10234F005512290112259312289D022386122891D6
:10235F00900EBCE0FF1226EB1228F2EE3395E0123E
:10236F0025A0122882900EBBE0C4035407FF122849
:10237F00E31225AB122873900EB8E0900112F09083
:10238F000EB7E0900113F0900EB6E0900114F090AC
:10239F000EB5E0900115F0900EB4E0900116F0909C
:1023AF000EB3E0900117F0900EB2E0900118F0908C
:1023BF000EB1E0900119F00224AE900EB0E0FF5381
:1023CF000780900107EFF0900EB0E0FF53074090A9
:1023DF000108EFF0900EB0E0FF53070F900109EFE7
:1023EF00F0900107E070030224441228AC900EAF66
:1023FF00E07E001226D812290112259312289D90F3
:10240F000EAEE0FF1226B612290112259312289D57
:10241F00900EADE0FF12268F12290112259312287C
:10242F009D900EACE0FF1226551229011225931232
:10243F00289D02246E122891900EAFE0FF1226EB1A
:10244F001228F2EE3395E01225A0122882900EAEDC
:10245F00E0C4035407FF1228E31225AB1228739030
:10246F000EABE0900112F0900EAAE0900113F090E5
:10247F000EA9E0900114F0900EA8E0900115F090D5
:10248F000EA7E0900116F0900EA6E0900117F090C5
:10249F000EA5E0900118F0900EA4E0900119F04302
:1024AF00B20422E5B3FF30E3FA900109E0FF900197
:1024BF0008E0FE900107E04E4207900ED7EFF09034
:1024CF000107E0604C90010AE0FCA3E0FFEC12264C
:1024DF0046900ED6EFF090010AE0FCA3E0FDA3E0DA
:1024EF00FFED122646900ED5EFF090010C1228C981
:1024FF00EEC403CFC40354076FCF5407CF6FCF90F1
:10250F000ED4EFF090010DE0C454F0900ED3F08094
:10251F002F9001101228C9EEC423CFC423541F6F6C
:10252F00CF541FCF6FCF900ED6EFF0900111E0C4B4
:10253F002354E0900ED5F0900ED4E4F0900ED3F02B
:10254F00900112E0900ED2F0900113E0900ED1F0B6
:10255F00900114E0900ED0F0900115E0900ECFF0A6
:10256F00900116E0900ECEF0900117E0900ECDF096
:10257F00900118E0900ECCF0900119E0900ECBF086
:10258F0043B20122E84204E94205EA4206EB420760
:10259F002242024203EE4204EF420522430300436C
:1025AF000400430500EF42062222C39FFFEC9E2248
:1025BF001FBFFF011E22F5F0EE122B94AE83AF82E8
:1025CF00228F82F583E4F5F0120183FC22C3EF948E
:1025DF00CCEE648022C3E58294FFE5839400E5F09E
:1025EF009400EC9400229F74838EF063F08095F03A
:1025FF0022C39488ED94132264808CF063F080954D
:10260F00F022C3EF9DEE2264808AF063F08095F094
:10261F0022C3E49F74808EF063F08095F022C39FF5
:10262F00EC64808EF063F08095F0220EBE00010DF9
:10263F00220FBF00010E22C403CFC40354076FCF74
:10264F005407CF6FCF22E4FDC4CFC4540F6FCF54C4
:10265F000FCF6FCFFEE44EFEE4CDC4540F6DCD54BB
:10266F000FCD6DCDFC22E8C313C913C9C313C91312
:10267F00C9F822EAC313CB13CBC313CB13CBFA2264
:10268F00E4FDC42354E0CDC423CD6DCD54E0CD6D16
:10269F00FCE423541F4DFDE42354E0CFC423CF6F3C
:1026AF00CF54E0CF6FFE22E4FDCDC42354E0CDC460
:1026BF0023CD6DCD54E0CD6DFCEFC423541F4DFDE4
:1026CF00EFC42354E0FE7F0022FDE42354E0CDC489
:1026DF0023CD6DCD54E0CD6DFC7F0022E40354F883
:1026EF00CFC403CF6FCF54F8CF6FFE22EDF0EEA320
:1026FF00F022F074FFA3F022F07434A3F022743FA1
:10270F00F07483A3F07411A3F07468A3F022F0EFB8
:10271F00A3F022F0E5F0A3F022EEF0EFA3F0229069
:10272F004076E4F07415A3F0229040747409F074AD
:10273F009CA3F022900033F0EFA3F022900062EE02
:10274F00F0EFA3F022900037EEF0EFA3F02290000D
:10275F0035F0EFA3F022900048EEF0EFA3F02290B7
:10276F000066F0E5F0A3F0EEA3F0EFA3F0229000E7
:10277F0008740FF074A0A3F02290008CF0EBA3F07C
:10278F00ECA3F0EDA3F022904092EEF0EFA3F02235
:10279F009040967402F0748FA3F022904094740AC4
:1027AF00F07465A3F02290407C7402F0748FA3F054
:1027BF0022904070740AF07465A3F0229040B8EE36
:1027CF00F0EFA3F02290005DE4F07414A3F02290D8
:1027DF00005FE4F0740DA3F02290005F74FFF074BB
:1027EF00EEA3F0229040CCEEF0EFA3F0229000D3B6
:1027FF00EDF0EEA3F0229000BAEEF0EFA3F02290EE
:10280F0000B6EEF0EFA3F0229000A3EEF0EFA3F0EE
:10281F00229000A1EEF0EFA3F022904086E4F07436
:10282F003DA3F022904084E4F07414A3F022904072
:10283F0090E4F0A3F022ECF0EDA3F0229000EDE491
:10284F00F07402A3F02290405C740AF074BFA3F0FE
:10285F0022900FD4EEF0EFA3F022900FD2EEF0E51E
:10286F00F0A3F02290010EEBF0ECA3F0EDA3F0EE4D
:10287F00A3F02290010EEAF0EBA3F0ECA3F0EDA38E
:10288F00F02290010EE4F0A3F0A3F0A3F022900148
:10289F000AECF0EDA3F0EEA3F0EFA3F02290010A03
:1028AF00E4F0A3F0A3F0A3F022E0FCA3E0FDA3E08B
:1028BF00FEA3E022E0FDA3E0FE22E0FEA3E0FF2264
:1028CF00E0FCA3E0FD2290008CE0FAA3E0FBA3E084
:1028DF00FCA3E02290010EE0FBA3E0FCA3E0FDA32C
:1028EF00E0FE2290010EE0FAA3E0FBA3E0FCA3E0E0
:1028FF00FD2290010AE0F8A3E0F9A3E0FAA3E0FBC0
:10290F0022900031E0FEA3E0FF2290002DE0FEA315
:10291F00E0FF22900027E0FEA3E0FF22900008E0F6
:10292F00FEA3E0FF22900037E0FEA3E0FF2290001D
:10293F005DE0FEA3E022900035E0FEA3E0FF2290D1
:10294F000013E0FEA3E0FF2290008AE0FEA3E0FF69
:10295F0022900048E0FEA3E0FF229000BAE0FEA321
:10296F00E02290001FE0FCA3E0229000B6E0FEA35F
:10297F00E02290001FE0FEA3E0FF229000A3E0FE04
:10298F00A3E0229000A1E0FEA3E022900013E0FC60
:10299F00A3E022F9E58124FBF8E6B2E7F6E9022A83
:1029AF00DF122A53BC0003022C39EF60FA30D50234
:1029BF00B2D1E583B4FF03022C4FE582B4FF0302CB
:1029CF002C4F258340072482400B022C392483147B
:1029DF005003022C4FF582EA8DF0A4A8F0EA8EF096
:1029EF00A428F8E435F0F9EB8DF0A428E935F0F9D7
:1029FF00E433CA8FF0A429F9EA35F0FAEBF88EF038
:102A0F00A429F9EA35F0FAE433FBEC8DF0A429F9A7
:102A1F00EA35F0FAE43BFBE88FF0A42AFAEB35F045
:102A2F00FBE433CCFD8EF0A42AFAEB35F0FBE43C4B
:102A3F00FCED8FF0A42BFBEC35F0FC20E703122A02
:102A4F0081022C18AA82AB83A2F73392D1F5826050
:102A5F0002D2F7ACF0E58124FCF8E6FD18E6FE188B
:102A6F0086F018E6A2F73392D5F5836002D2F7AF5E
:022A7F00F02243
:08006C00E478FFF6D8FD0174F1
:102A81007804EC7011E58224F8500AF582E4C9CA91
:102A9100CBFCD8EF22EC7820058220E713D5820108
:102AA10022C3E933F9EA33FAEB33FBEC33FCD8EA1E
:032AB10015822269
:100089007941E94400602A7A01902D7F781A7D012F
:10009900E493C0E0E582CBE583CC88828D83D0E010
:1000A900F0CBF582CCF583A308B800010DD9E1DACC
:0300B900DF01BCA8
:102AB400FFE58124FBF8EF122B56D2D133E6400513
:102AC40030E708E42220E705740122C2D1122B3832
:102AD400E970012220D101B3E43322122A53790090
:102AE400E583B58202800D5003122C67E583C395FC
:102AF40082122CC1E5D0C465D020E117EA2DFAEB8F
:102B04003EFBEC3FFC50097401122CC1EC4480FCE8
:102B1400022C18C3EA9DFAEB9EFBEC9FFC500FC3FA
:102B2400E499F9E49AFAE49BFBE49CFCB2D1122AFE
:042B340081022C18D6
:1000740078F7E8440E600C790F900000E4F0A3D800
:05008400FCD9FA01891E
:102B38007901AA82E68F82B5821308E6B5F00E08FD
:102B4800E6B5830908E68A82B58202790022B48054
:102B58000FE5F0700AE5837006E58270027F00EFEA
:102B6800B6801508B6001008B6000B08B60006189F
:102B7800181876002218181822C5827002158314B6
:102B8800C58222122D048582F0E58322FCABF07AFF
:102B9800007900748E022C8AFCABF0E4FAF9748E8A
:102BA800022CB7C018858118C0F0C083C082058187
:102BB8000581A818088602088603088604E51824F3
:102BC800FBF8E5182404F9E6F708E609F7E5182400
:102BD80004F88606088607E5182404F80816B6FFE0
:102BE800021816EE4F60168AF08B838C82E5182443
:102BF800FDF8E6122D73A3AB83AC8280D0A8180829
:102C0800080886821886831886F0851881D01822CD
:102C1800B98003EA13B34010EA2401FAE43BFBE469
:102C28003CFC50047C800582BC000EBB000BBA0043
:102C380008E4F5F0F583F58222A2D1E582138CF041
:102C480092F78B838A8222E4F583F58275F080F40B
:102C5800A2D11322E4F583F58275F0C0747F22E5D2
:102C680082C583F582A2D133A2D592D11392D5EC35
:102C7800CFFCEBCEFBEACDFA22FCABF0AA83A9820B
:102C8800749EF582C2D1EC30E716D2D1E9F4240162
:102C9800F9EAF43400FAEBF43400FBECF43400FC09
:062CA800122A81022C1823
:0300690002006C26
:0B00BC00758120122D5F6003020066BA
:102CAE00FCABF0AA83A982749EC2D1F582122A814E
:102CBE00022C186040F82582500274FFF582E82439
:102CCE00F8501ECCCBCAF9E4CC24F85014CBCAF978
:102CDE00E4CB24F8500BCAF9E4CA24F85003790067
:102CEE002224086010F8C3EC13FCEB13FBEA13FA72
:102CFE00E913F9D8F122122D61C3749E95824039E1
:102D0E007900122CC130D126E9F42401F582EAF4BF
:102D1E003400F583EBF43400F5F0ECF43400700A73
:102D2E00E582458345F0700122E430E70F22EC2066
:102D3E00E71489828A838BF02230D10AE4F582F57A
:102D4E0083F5F074802274FFF582F583F5F0747FBD
:102D5E0022E422AA82AB83A2F73392D1F5826002DB
:102D6E00D2F7ACF02230F607A882F622F280FCF001
:012D7E002232
:00000001FF
