:06000000020069020A6F14
:01000B0032C2
:03001300020A9C42
:03001B00020ACB0B
:0100230032AA
:01002B0032A2
:01003300329A
:01003B003292
:03004300020B08A5
:03004B00020B7E27
:03005300020C128A
:01005B003272
:03006300020C4646
:0300C700750800B9
:0300D400020066C1
:0300660002015341
:1000D70053DC9F221201171217EA75F0F47401120C
:1000E7001E481218BA1217451218341217A81219F7
:1000F70084121822538CDF438C1090406112211117
:10010700D2AF2212116E1211B675140075150022A6
:1001170090404FE0547FF0FF43074090404F121F3D
:100127003943070490404F121F3943070290404F4D
:10013700EFF0904052E04420F043FF20904052E01F
:100147004404F090404FE04411FFF0227E3A7F983C
:10015700122041EE4F70F912010A1200DB1200D78C
:10016700900092E070051211F58003120C77E508F4
:0F01770060EEB292121EB112086875080080E1A6
:0A00CA00900079E4F0A3F07509003E
:100186002275090190004674070220E47408B5142C
:100196000280087409B5140280012290003DE0FF38
:1001A6006009BF0103020267020300122006FFC3B3
:1001B60074999F74818EF063F08095F0400302027B
:1001C60049900056E0FF0F900056EFF0FF24F540EF
:1001D6000302030090003D7401F012218A12217F70
:1001E6001221A01221951218E112191A1219519012
:1001F600003CE0FFBFB0028014122006FF8FF0EE35
:10020600122495FCADF0AE83AF8212214D9040AE24
:10021600E4F0A3F090005BF004A3F090006A1220D3
:10022600EA90006E1220EA904092121F2D1221448D
:10023600904090E4F0A3F0121FCB900FB012210B68
:100246000203009000177402F07422A3F0900017C6
:10025600121F2D9040AE12210B900056E4F00203BF
:100266000090005B121F2D121EEA90005B12210BFC
:1002760090005B120A60C39401EE940050030203DF
:100286000090005BE4F0A3F0900046121F2D8FF063
:10029600EE120368FEAFF090007912210B121FF6E2
:1002A600FDEFC39DFFEE9CFE8FF01219DAFEAFF054
:1002B60090004C12210B900015121F2D743DC39F08
:1002C600FF740A9EFE8FF0121A01FEAFF090004EE8
:1002D60012210B90004E121F2D90004CE0FCA3E063
:1002E600121EDF120A56400512214480079000486C
:1002F600EC122106121FCB122176121FBBFFC3740C
:10030600849F74CB8EF063F08095F0502090010F9F
:10031600E0701A90010F7401F09040A0E054F3FFD2
:10032600F0A3A374B7F09040A5740BF022121FBB84
:10033600FFC394FFEE648094BF502690010FE0B493
:10034600011F90010FE4F09040A0E0FF74F35F44BA
:10035600089040A0FFF0A3A374AAF09040A57412E1
:10036600F02290007B1224B590007B121F2D900086
:100376006412210B900064121F2D900066E0FAA310
:10038600E0FBA3120A50C005C004C003C0028FF0F0
:10039600EE122495F8A9F0AE83AF82D002D003D036
:1003A60004D005C005C004C003C002C000C001C01F
:1003B60006C0078D828C838BF0EA122367FFE581E6
:1003C60024FCF581D002D003D004D005EF700302DF
:1003D6000488120A1B90006AE0F50AA3E0F50BA355
:1003E600E0F50CA3E0F50DC005C004C003C0021281
:1003F6000A26D002D003D004D005C007C006C00527
:10040600C004C003C002C001C000850FF0E50E1293
:100416002495F51085F011858312858213D000D0BE
:1004260001D002D003D004D005D006D007C005C045
:1004360004C003C002C010C011C012C0138F828E48
:100446008389F0E8122367FFE58124FCF581D00259
:10045600D003D004D005EF6014120A26900066E897
:10046600F0E9A3F0EEA3F0EFA3F002055A900066C0
:10047600E510F0E511A3F0E512A3F0E513A3F002F1
:10048600055A120A1B90006EE0F510A3E0F511A3C1
:10049600E0F512A3E0F513C005C004C003C002C016
:1004A60010C011C012C0138D828C838BF0EA122209
:1004B60055F8A9F0AE83AF82E58124FCF581D00220
:1004C600D003D004D005C007C006C005C004C003D1
:1004D600C002C001C000850FF0E50E122495F50A92
:1004E60085F00B85830C85820DD000D001D002D01B
:1004F60003D004D005D006D007C005C004C003C091
:1005060002C000C001C006C007122367FFE58124B0
:10051600FCF581D002D003D004D005EF6024C010D2
:10052600C011C012C0138D828C838BF0EA12225543
:10053600FCADF0AE83AF82E58124FCF58112214D3E
:100546008012900066E50AF0E50BA3F0E50CA3F037
:10055600E50DA3F0900066E0FCA3E0FDA3120A609F
:10056600F5828E838DF0EC1224A1FEAFF022121FCD
:10057600B2900029E0FCA3E0121EDF64808EF063D7
:10058600F08095F0400302064490002B120A604E5C
:10059600600302064474062DFDE43C900029FC121B
:1005A6002106900044E07013121FAA2405FFE43EC2
:1005B60012213B121FDD1221B48012121FAA24FB46
:1005C600FFEE34FF12213B121FDD1221B4121FB2BF
:1005D600900029E0FCA3E0121EDF120A56404E905E
:1005E600002BE4F004A3F0900F5CE4F074CCA3F0CD
:1005F600900F62E4F074A3A3F0900F5EE4F0A3F012
:10060600A3F0A3F0121FB2900F6412210B900F6695
:10061600E4F0A3F0A37410F07441A3F0A3740BF0FC
:1006260003A3F090003574FEF07455A3F0121FDD9D
:1006360012213290002F7410F074EDA3F022904036
:10064600BC121F2D90002D12210B121FA190002FFE
:10065600120A50C39FFFEC9E900031122100121F18
:10066600A190002F12210B121FA17433C39FFF7498
:10067600119E900F6012210075C1277E00E5C1FF13
:1006860020E7F8900F64121F2D90002912210B907D
:100696000FA07407F0F4A3F0121F98C3E49F7480B0
:1006A6008EF063F08095F0503D121F98900FA212C5
:1006B600210B75C10A7E00E5C1FF20E7F8121F90E5
:1006C600FF122129900062120A60FE7F0012212982
:1006D600121F908E077E00900FA4120A50120A660F
:1006E60012212002073B121F98C3E49FFFE49E904D
:1006F6000FA212210075C10A7E00E5C1FF20E7F8AE
:10070600121F90FF122129900062120A60FE7F00DC
:10071600122129121F908E077E00900FA4120A50F4
:10072600120A66122120900033121F2DC3E49FFF88
:10073600E49E122120900033121F2D900035120ADC
:10074600502FFFEE3C12213B121FAAFF2464FDE44A
:100756003EFC900037E0FAA3E0FBC3ED9BEC64801F
:100766008AF063F08095F05010EB249CFDEA34FF8C
:10077600900037FC1221068024EF249CFDEE34FF06
:10078600FCC3EB9DEA121EC2501074642BFBE43AC4
:10079600900037FAF0EBA3F08003122132121FD437
:1007A6000221B47408B5140280012290003DE07065
:1007B6002E900048120A60C39431EE6480948850EB
:1007C6000E741E2FFFE43E900048122100800A900E
:1007D60000487408F07431A3F0121FCB1221761270
:1007E6001FC3FFBE0014BF28119040747402F0743A
:1007F60090A3F0A3E4F004A3F022BE001EBF1E1BCC
:1008060090407AE4F07415A3F09040747405F07487
:1008160020A3F0A3E4F07407A3F022BE001EBF14C9
:100826001B90407AE4F0742AA3F09040747406F0AA
:100836007468A3F0A3E4F0740CA3F022C3740A9FB7
:10084600E49E401D900045E070179040747407F0D8
:1008560074B0A3F0A3E4F0740EA3F0900045740105
:10086600F0229040391221117401B514030208F9DF
:10087600E51470030208F99040D4121F2D121FF6DA
:10088600FD1221179000DF7432F012206190001FD4
:1008960012210B9040AE120A46FEEF2FFFEE33FEFA
:1008A600900057121F331221179000DF7432F01296
:1008B600206190005712210B7408B514439040D85C
:1008C600120A4690001B12210090001B121F2D9049
:1008D600001D121F339000D4EC1221069000D6742E
:1008E6001EF08FF0EE1219A4FEAFF090001D12213B
:1008F6000B800D90001FE4F0A3F090001DF0A3F014
:10090600900FEE121F2D90007712210B90008AE0B7
:10091600FCA3E0121EDF9E500FEFC39D900078F0FF
:10092600EE9C12248BF08007900077E4F0A3F09001
:100936000077121F2D900015121F331221179000F9
:10094600DF7420F012206190001512210B900FF633
:10095600121F2D12201EFD1221179000DF7432F097
:1009660012206190001312210B900FDE121F2D90A2
:100976000019121F331221179000DF7432F0122073
:100986006190001912210B121FBBFF900023121F4A
:10099600331221179000DF7432F012206190002389
:1009A60012210B9040B8121F2D900025121F3312F2
:1009B60021179000DF7432F0122061900025122179
:1009C6000B121993900061FFF01201871215A41201
:1009D60001921207A9121FC3FF4E6009122041900F
:1009E600005D12210B900011E0FF60061F900011C0
:1009F600EFF0900012E0FF60061F900012EFF090FB
:100A060000F9E0FF60061F9000F9EFF07405B514D9
:100A16000312057422900064E0F50EA3E0F50F22A0
:100A2600C00AC00BC00CC00D8D828C838BF0EA12FD
:100A36002392F8A9F0AE83AF82E58124FCF58122EA
:100A4600E0FEA3E025E0FFEE3322E0FCA3E0FD227A
:100A560064808EF063F08095F022E0FEA3E0FF2232
:090A6600FC7D00EF2DFFEE3C22A7
:012873000064
:100A6F00C0E0C007C006C0D075D0007E00E5DBFF38
:100A7F0030E0117E00E5DBFF30E10675150453DB36
:100A8F00FD53DBFED0D0D006D007D0E032C0E0C09F
:100A9F0082C083C007C0D075D000E5D2601390002C
:100AAF0076E0FFBF0108900076E4F043C90175D2EC
:100ABF0000D0D0D007D083D082D0E032C0E0C08247
:100ACF00C083C007C006C0D075D000120C6F30E5D0
:100ADF000690406174C2F0120C6F30E40F904061C9
:100AEF00E0FF74804F54EF904061FFF0D0D0D006FC
:100AFF00D007D083D082D0E032C020C0E0C0F0C099
:100B0F0082C083C007C006C005C004C003C002C0B6
:100B1F0001C000C0D075D0007E00E5B6FF30E00602
:100B2F00121A6B43B2047E00E5B6FF30E10353B6F1
:100B3F00FD7E00E5B6FF30E30353B6F77E00E5B662
:100B4F00FF30E20353B6FB7E00E5B6FF30E40353FC
:100B5F00B6EFD0D0D000D001D002D003D004D00552
:100B6F00D006D007D083D082D0F0D0E0D02032C0D2
:100B7F00E0C082C083C007C006C0D075D0007E0021
:100B8F00E59DFF30E703539D7F7E00E59DFF30E637
:100B9F002E900010E07025900004E5A5F0E5A4A3C9
:100BAF00F0900008E5A7F0E5A6A3F09000107401FF
:100BBF00F0900072E4F0A3F0A3F0A3F0539DBF7E7A
:100BCF0000E59DFF30E52F900010E07026FEE590C8
:100BDF00FF30E10F900004740FF074A0A3F0122106
:100BEF005C800A900004E4F0A3F012215C900010E6
:100BFF007401F0539DDFD0D0D006D007D083D082C0
:100C0F00D0E032C0E0C082C083C007C006C0D0753C
:100C1F00D000120C6F30E712750801904061E0FFB1
:100C2F0074104F547F904061FFF0D0D0D006D007A2
:100C3F00D083D082D0E032C0E0C007C006C0D075EC
:100C4F00D0007E00E5D7FF30E70D7404B5140280A5
:100C5F000375150153D77FD0D0D006D007D0E0321F
:100C6F00904061E0FF7E0022E515600375140AE5F0
:100C7F001424F45003020DA1E514240B83F582E52F
:100C8F0014241083F583E473AFD4A1A1A11231A171
:100C9F006F778F7A0C0C0D0D0D0D0D0D0D0D0D0DBC
:100CAF001212A3900092E0FFBF0102800122740193
:100CBF00B50902800122751401900092E4F09000B2
:100CCF0090F0A3F022E509700475140922900092A8
:100CDF00E0FFBF01028001221212BF900044E070BA
:100CEF000C90005F74FFF074EEA3F0800990005F2A
:100CFF00E4F0740DA3F075140590005DE4F0741426
:100D0F00A3F022E509700475140922120F1B121F9C
:100D1F00C3FF4E700475140622900029121F2D0276
:100D2F0021AB90003CE0FFBFB00890005DE4F0A362
:100D3F00F022BFC02190005DE0FDA3E0FE4D6003F7
:100D4F0002114290005DE4F07432A3F0751401902B
:100D5F00003C74A0F022BFA03C121096751408221C
:100D6F00E509703175140922021111121FC3FF4ECC
:100D7F007023C2FF904062E054DFFFF07514002231
:100D8F00E5157003F51422904062E054DFFFF0C2C6
:100D9F00FF22751400221221EA904062E0547FF086
:100DAF00FF5307DF12202E430720904062EFF09091
:100DBF00409FE054DFF0FF43071090409F121F3910
:100DCF0043070890409FEFF09040D874FFF0904099
:100DDF00A0E4F0A3F0904090F0A3F0A3F0A3F09064
:100DEF0040CCF0A3F09040AAF0A3F09040A8F0A35D
:100DFF00F09040ACF0A3A37402F07422A3F09040E3
:100E0F00AD7404F0904082E4F0A3F0A3F0A3F0A33C
:100E1F00F0A3F09040B0744CF074CCA3F0A374B373
:100E2F00F07434A3F0A3747EF074B7A3F0A37481AD
:100E3F00F07449A3F090408C7401F07408A3F0A3F0
:100E4F007401F0F4A3F09040887402F0747DA3F065
:100E5F00A3E4F0A3F09040A1E0547FF090407874A9
:100E6F006CF074CBA3F0A3E4F0740AA3F090409F4E
:100E7F00E04402F090409EE04420F09040807405E2
:100E8F00F07455A3F090407EE4F07480A3F090408E
:100E9F00A37441F09040A0E04401FFF0900044E0C3
:100EAF00700A904062E054BFFFF0800690406212DB
:100EBF0021119040A0E0FF74F35F44089040A0F030
:100ECF009040A57412F09040A274AAF09040A1E057
:100EDF0054DFF0900092E0FFBF01129040A1E05468
:100EEF00F3FFF0121FE6FF9040A612210B9040A1D6
:100EFF00E054FEF0FF5307FD9040A1EFF0904062E9
:100F0F00121F3E430708904062EFF02290007DE0F1
:100F1F0030E2012290007DE04404F0120DA59040D4
:100F2F0074E4F0A3F0A3F0A3F09040D4F0A3F090FA
:100F3F0040A1E04401F0FF4307029040A1EFF09081
:100F4F000013E0FEA3E0FFC394B8EE648094AC50AE
:100F5F006374192FFD74DF3EFC8DF0122495FAABEC
:100F6F00F0AC83AD82C002C003C004C00590CAAF0D
:100F7F0075F09574BE122263FAABF0AC83AD82E5C7
:100F8F008124FCF5817445C0E07482C0E07408C010
:100F9F00E0E4C0E0EA122392FAABF0AC83AD82E555
:100FAF008124FCF581EA1224A1FCADF090002712F8
:100FBF002106806174482FFF74D33EFE8FF01224F8
:100FCF0095FCADF0AE83AF82C004C005C006C0076C
:100FDF00906C7875F05D74BD122263FCADF0AE833A
:100FEF00AF82E58124FCF5817445C0E0744CC0E00C
:100FFF0074C0C0E0E4C0E0EC122392FCADF0AE830D
:10100F00AF82E58124FCF581EC1224A1FEAFF090B4
:10101F00002712210B900029E4F0A3F09040BAF0C2
:10102F00A3F090407074071220E490407C7419F084
:10103F007499A3F090409474071220E49040967432
:10104F0019F07499A3F0900044E070149000357477
:10105F00F3F07434A3F0A374F3F07434A3F080129C
:10106F009000357409F07475A3F0A37409F07475CA
:10107F00A3F090002BE4F0A3F0121FDD1221B4D2E5
:10108F00FF121FDD0221B4120DA5D2FF121FD412C1
:10109F0021B4121FD4EE24F09040CE1221009040C4
:1010AF0090E4F0A3F090004804F07406A3F09000D1
:1010BF0029121F2D1221AB1221A012219512218A64
:1010CF0012217F904074E4F0A3F0A3F0A3F09040BE
:1010DF0082F07402A3F0A3E4F07414A3F0A3E4F07D
:1010EF00743DA3F09040A0E0FF748F5F4450904098
:1010FF00A0FFF090005DE4F0748CA3F0121FCB0200
:10110F002176122006C394FFEE648094AFE433FF80
:10111F00700B90005DE0FDA3E0FE4D7015EF6012C7
:10112F00C2FF12114275140B90005D740FF074A082
:10113F00A3F022D2FF1220365307F712202E4307B7
:10114F0080904062EFF090405CE4F07415A3F0A340
:10115F00E0FEA3E02404FFE43E90405802210090FB
:10116F00007DE4F090004404F09000801212C2124F
:10117F0020E49000861212C21220E490008C12120A
:10118F00C21220E4900008F0A3F0122047E4C0E060
:10119F00740FC0E0E4C0E09000C575F0001224BDEC
:1011AF00158115811581221220479000AB7446F0EE
:1011BF0074E3A3F0A3741BF07491A3F09000B974BF
:1011CF00471220E49000BB7403F07433A3F0900037
:1011DF007DE4F090003DF090003BF0900045F090E2
:1011EF00003C74A0F022904039122111904039E058
:1011FF00FF7E0020E6F6900FE0121F2D53067F535F
:10120F0007F8121F46E4F8F9EF2DFDEE3CFCE93B21
:10121F00FBE83A12216790008CE0FCA3E0FDA3E00D
:10122F00FEA3E0FFEEC4CFC4540F6FCF540FCF6FA8
:10123F00CFFEEDC454F04EFEECC4CDC4540F6DCDB3
:10124F00540FCD6DCD30E30244F0FC90008A122193
:10125F000B121FE6FF121F46EE3395E0F8F9EDC3B0
:10126F009FFDEC9EFCEB99FBEA9812216790009092
:10127F00121F2D121EEA90009012210B9000901257
:10128F001F2DC374E8121ECC50099000927401F008
:10129F0012157C2290007DE020E01490007DE04448
:1012AF0001F0C2FF12203653077F904062EFF02209
:1012BF000211B6E4F0A3F0743FA322E5157032904B
:1012CF000061E0FFBF960040219000C112173D94CE
:1012DF0010EE94275009121EEA9000C102210B90C4
:1012EF0000C1E4F0A3F0751508229000C1E4F0A34B
:1012FF00F022E515703D900019121F2DC374299F20
:10130F00748C8EF063F08095F040219000C312171B
:10131F003D94E8EE94035009121EEA9000C3022197
:10132F000B9000C3E4F0A3F0751507229000C3E4FF
:10133F00F0A3F0229000A912173D9432EE940050C2
:10134F0009121EEA9000A902210BE51560012290F7
:10135F0000AB121F2D12201EFDC3EF9DEE9C5022DD
:10136F00122016FF121EEA1221E1122016FFC3945B
:10137F0064EE940040199000A1E4F0A3F0751503FA
:10138F00800D122016FF4E60061220411221E190AF
:10139F0000AD121F2D12201E121EDF9E5021122093
:1013AF000EFF121EEA1221D812200EFFC39464EE14
:1013BF00940040189000A3E4F0A3F07515042212D6
:1013CF00200EFF4E60061220411221D822900057A6
:1013DF00121F2D8FF0EE1224AAFCADF0AE83AF8258
:1013EF0090001FE0FAA3E0FBC007C006C005C004D1
:1013FF008BF0EA122495F8A9F0AA83AB82D004D01F
:10140F0005D006D007C004C005C006C00712259C32
:10141F00FCADF0AE83AF82E58124FCF58190011025
:10142F00ECF0EDA3F0EEA3F0EFA3F07408B5140207
:10143F0080030215349000AFE0FEA3E0121ED750D8
:10144F0009121EEA9000AF02210B90005712173DB0
:10145F00945EEE94015030122006FFC3745B121E8F
:10146F00CC5024121FFEFF121EEA1221CF121FFEB4
:10147F00121ED7401F9000B1E4F0A3F0751506902F
:10148F0000BD740EF0800D121FFEFF4E600612207D
:10149F00411221CF9000BB121F2D121FF6121EDF1B
:1014AF0064808EF063F08095F0400D9000B91217B4
:1014BF003D9DEE121EC25024121FEEFF121EEA12A5
:1014CF0021C6121FEE121ED7401F9000B5E4F0A3E5
:1014DF00F07515069000BD7415F0800D121FEEFF0C
:1014EF004E60061220411221C690003DE0702E90F2
:1014FF0000B7121F2D121EEA9000B712210B900099
:10150F00B712173D9488EE94135001229000B7E460
:10151F00F0A3F07515069000BD741FF0229000B770
:10152F00E4F0A3F0227407B5143B9000BE12173DF0
:10153F009488EE9413500B121EEA9000BE12210BEA
:10154F00B2829000BEE0FEA3E0121ED7401E9000B4
:10155F00BEE4F0A3F07515069000BD7429F090005D
:10156F00C07404F0229000BEE4F0A3F02290009229
:10157F00E0FFBF011F121FE6FFC39452EE64809479
:10158F00B8400E74AC9F74C78EF063F08095F05026
:10159F0003751509221212CA1213011213431213E3
:1015AF00DC0215B3740AB5140280012290001312E5
:1015BF001F2DC374799F74A18EF063F08095F05046
:1015CF0045C3EF94F3EE648094C2503A7404B5159A
:1015DF000280057403B5152E9000C512173D94F4C3
:1015EF00EE9401500B121EEA9000C512210B801DC4
:1015FF009000CFE0FF0F9000CFEFF09000C5E4F028
:10160F00A3F0F51580079000C5E4F0A3F07408B5BA
:10161F001536900061E0FF2482402D9000D0E0FF4E
:10162F00BF050050239000C9E0FDA3E0121EBA5081
:10163F0008121EE41221BD800F0F9000D0EFF09022
:10164F0000C9E4F0A3F0F5157407B5153C90001927
:10165F0012173D949CEE6480948D402D9000D0E045
:10166F00FFBF050050239000C9E0FDA3E0121EBA92
:10167F005008121EE41221BD800F0F9000D0EFF022
:10168F009000C9E4F0A3F0F5157405B5153090007E
:10169F00D1E0FFBF050050269000C7E0FDA3E01288
:1016AF001EBA500B121EE49000C71220FA800F0FC3
:1016BF009000D1EFF09000C7E4F0A3F0F515740699
:1016CF00B515309000D3E0FFBF050050269000CD38
:1016DF00E0FDA3E0121EBA500B121EE49000CD12D3
:1016EF0020FA800F0F9000D3EFF09000CDE4F0A31D
:1016FF00F0F5157402B5150280057401B5152E901D
:10170F0000D2E0FFBF050050249000CBE0FDA3E026
:10171F00121EBA5009121EE49000CB0220FA0F904D
:10172F0000D2EFF09000CBE4F0A3F0F51522E0FE2D
:05173F00A3E0FFC3223E
:042874000000000060
:1017440022904051E04401F0FF4307081220264351
:1017540007101220264307201220264307809040BA
:1017640051EFF0A3E04410FFF0904051122111908A
:101774004036121F2D43068843079F90403612219E
:101784000B904039E04420F0FF43070490403912A5
:101794001F395307FD904039121F39430780904089
:1017A40039EFF022904052E04402F0FF43070190E9
:1017B4004052EFF0904051E04480F090404EE054AD
:1017C400EFF0FF43070190404EEFF0904034E054B7
:1017D400FBF0FF430702904034121F394307019086
:1017E4004034EFF02222904051E04480FFF053D681
:1017F400BF53D6DF904035121F3E5307BF9040358C
:10180400EFF090404B74F9F043D60853D9FB53D909
:10181400EF43D90843D90243D90143D6102253D701
:101824007F53D57F43D540438D02438D012222222D
:1018340090405E740BF074B8A3F0A37418F0904059
:1018440058E4F0A3F01221EA75F80053F9FD53F9B6
:10185400FE904061E054F7F0FF5307EF904061EFD2
:10186400F0FF430702904061121F395307FE904076
:1018740061EFF090405A7401F07477A3F0538A7FBB
:10188400438A40904061E054FBFFF0122036430746
:101894000412202E43078012202E5307EF12202E0D
:1018A400430701904062EFF090401DE04410F0A324
:1018B400E054EFFFF02243FE04D2A243FD04D2928F
:1018C40043FC80D28743FC20D28543FC40C28690EF
:1018D4004050E04408FFF043FD08D29322900FA843
:1018E400741FF074FEA3F0900FAEE4F07420A3F024
:1018F400900FAAE4F0A3F0A3F0A3F0900FB0F0A32C
:10190400F0A3F0A3F0A37453F074F7A3F0A374FE50
:10191400F074FAA3F022900F5C741FF074FEA3F02D
:10192400900F627402F0748FA3F0900F5EE4F0A342
:10193400F0A3F0A3F0900F64F0A3F0A3F0A3F0A33E
:10194400747EF074B7A3F0A3E4F0A3F022900F48E0
:10195400740F1220E4900F4AE4F0A3F0A3F0A3F074
:10196400A304F07447A3F0A3E4F0A3F0A3F0A3F05E
:10197400A3F0A3F0A374F5F07456A3F0222222225C
:1019840090402F121F3E43074090402FEFF02290CB
:0F1994004048E02414F582E43401F583E0FF229B
:102878004647484A4B4C4D4F50515253545657585F
:10288800595B5C5D5F60616364656668696B6C6E0B
:102898006F707273757678797B7C7E80818384868D
:0F28A80088898B8D8E9092949597989A9C9EA07C
:1019A300229000D71224B59000D6121A5E12220795
:1019B3009000D7121F2D1221FE9000D4121F2D125A
:1019C30021F575C10E7E00E5C1FF20E7F8900FD425
:1019D300121F2D8FF0EE229000D91224B59000D95A
:1019E300121F2D900FAC12210B75C1177E00E5C19C
:1019F300FF20E7F8900FB0121F2D8FF0EE2290001A
:101A0300DB1224B59000DB121F2D900F6012210B07
:101A130075C1277E00E5C1FF20E7F8900F64121F10
:101A23002D8FF0EE229000E01224B59000DF121A01
:101A33005E1222079000E0121F2D1221FE9000DD9E
:101A4300121F2D1221F575C10E7E00E5C1FF20E79F
:101A5300F8900FD4121F2D8FF0EE22E03395E0FEA5
:101A6300E0FFFE7F0022222274C055B5FF600FBF46
:101A73004003021B56BF8003021C28021CF7900E72
:101A8300CA121E3C900ECA121E31900ECA121E2696
:101A93009000FAE07003021AE7122249900EC9126D
:101AA3001E1D1220BB121F81121DF112223A900E2D
:101AB300C8E0FF122097121F81121DF112223A90E3
:101AC3000EC7E0FF12206B121F81121DF112223A82
:101AD300900EC6E0FF121F00121F81121DF1122289
:101AE3003A021B0F12222E900EC9E0FF1220D212CF
:101AF3001F72EE3395E0121DFE12221F900EC8E0F6
:101B0300121F26121F63121E0C122210900EC5E024
:101B1300900105F0900EC4E0900106F0900EC3E032
:101B2300900107F0900EC2E0900108F0900EC1E022
:101B3300900109F0900EC0E090010AF0900EBFE012
:101B430090010BF0900EBEE090010CFFF0121CFB15
:101B5300021CF7900EBD121E3C900EBD121E31905A
:101B63000EBD121E269000FAE07003021BBC122267
:101B730049900EBC121E1D1220BB121F81121DF1B3
:101B830012223A900EBBE0FF122097121F81121D02
:101B9300F112223A900EBAE0FF12206B121F81124B
:101BA3001DF112223A900EB9E0FF121F00121F819D
:101BB300121DF112223A021BE412222E900EBCE0F7
:101BC300FF1220D2121F72EE3395E0121DFE122275
:101BD3001F900EBBE0121F26121F63121E0C12224F
:101BE30010900EB8E0900105F0900EB7E09001065A
:101BF300F0900EB6E0900107F0900EB5E09001086A
:101C0300F0900EB4E0900109F0900EB3E090010A59
:101C1300F0900EB2E090010BF0900EB1E090010C49
:101C2300FFF0021CF7900EB0121E3C900EB0121E75
:101C330031900EB0121E269000FAE07003021C8E43
:101C4300122249900EAF121E1D1220BB121F8112C9
:101C53001DF112223A900EAEE0FF122097121F815F
:101C6300121DF112223A900EADE0FF12206B121FEB
:101C730081121DF112223A900EACE0FF121F0012E6
:101C83001F81121DF112223A021CB612222E900E4F
:101C9300AFE0FF1220D2121F72EE3395E0121DFE49
:101CA30012221F900EAEE0121F26121F63121E0C8B
:101CB300122210900EABE0900105F0900EAAE09076
:101CC3000106F0900EA9E0900107F0900EA8E090B5
:101CD3000108F0900EA7E0900109F0900EA6E090A5
:101CE300010AF0900EA5E090010BF0900EA4E09095
:101CF300010CFFF043B204227E00E5B3FF30E3F8AA
:101D03009000FCE0FF9000FBE0FE9000FAE0FD4E47
:101D13004207900ED7EFF09000FAE07003021D7BAC
:101D2300121F558D07EC121EF07C007D00900ED61D
:101D3300EFF0121F558E07ED121EF0ECC40354F89A
:101D43004EFEECC4035407FD7C00900ED5EFF090DB
:101D530000FF121F2DEEC403CFC40354076FCF54EB
:101D630007CF6FCFFE900ED4EFF0900100E0C45484
:101D7300F0900ED3FFF08031900103121F2DEEC4BB
:101D830023CFC423541F6FCF541FCF6FCFFE900EAA
:101D9300D6EFF0900104E0C42354E0900ED5FFF099
:101DA300900ED4E4F0900ED3F0900105E0900ED2A3
:101DB300F0900106E0900ED1F0900107E0900ED074
:101DC300F0900108E0900ECFF0900109E0900ECE64
:101DD300F090010AE0900ECDF090010BE0900ECC54
:101DE300F090010CE0900ECBFFF043B20122E842E9
:101DF30004E94205EA4206EB420722F8F94202E906
:101E03004203EE4204EF420522E4F8F9FAE8420302
:101E1300E94204EA4205EF420622E0FF7C007D002E
:101E23007E0022E0FF53070F9000FCEFF022E0FF5B
:101E33005307409000FBEFF022E0FF530780900030
:101E4300FAEFF0222290010D1224B590401EE044D7
:101E530020F090010D7C007D00E0FEA3E0FFEECDBD
:101E63005401A2E0CD13CD13CDFCEFC3134DFDEF11
:101E7300035480FEE4FFC0E0C0E07403C0E074E8F4
:101E8300C0E08F828E838DF0EC122434AE83AF8258
:101E9300E58124FCF58174FCC39F74FF9EFE904092
:101EA30027F075C980904026E04401FFF02290405E
:101EB30026E04401FFF022FEC39488ED94132264CC
:101EC300808CF063F08095F0229F74838EF063F032
:101ED3008095F022FFC394B8EE940B22FDC39FECD0
:101EE300220EBE00010D220FBF00010E22C403CF3C
:101EF300C40354076FCF5407CF6FCFFE22E4FCFD1A
:101F0300FEC4CFC4540F6FCF540FCF6FCFFEEDC4B9
:101F130054F04EFEECC4CDC4540F6DCD540FCD6DB3
:101F2300CDFC22FFC4035407FF22E0FEA3E0FF22FF
:101F3300E0FCA3E0FD22EFF0E0FF22E04480FFF0AD
:101F4300E0FF2290008CE0FAA3E0FBA3E0FCA3E017
:101F5300FD229000FDE0FCA3E0FDA3E0FEA3E02250
:101F6300900101E0FBA3E0FCA3E0FDA3E0FE2290CF
:101F73000101E0FAA3E0FBA3E0FCA3E0FD22900053
:101F8300FDE0F8A3E0F9A3E0FAA3E0FB22900FA69B
:101F9300E0FEA3E022900031E0FEA3E0FF229000E8
:101FA3002DE0FEA3E0FF22900035E0FEA3E02290A7
:101FB3000027E0FEA3E0FF229040BAE0FEA3E02268
:101FC30090005DE0FEA3E022900048E0FEA3E0FF66
:101FD30022900037E0FEA3E0FF22900035E0FEA34D
:101FE300E0FF2290008AE0FEA3E0229000B5E0FE2D
:101FF300A3E02290001FE0FCA3E0229000B1E0FEEA
:10200300A3E02290001FE0FEA3E0229000A3E0FEE5
:10201300A3E0229000A1E0FEA3E022900013E0FCE5
:10202300A3E022904051EFF0E0FF22904062EFF0F6
:10203300E0FF22904062E054DFFFF0E0FF221FBF89
:10204300FF011E22E4C0E07432C0E0E4C0E090006F
:102053009375F0001224BD158115811581228FF02F
:10206300EE121A28FEAFF022E4FCFDFEECC423546A
:10207300E0CDC423CD6DCD54E0CD6DFCEEC423542F
:102083001F4DFDEEC42354E0CFC423CF6FCF54E0E4
:10209300CF6FFE22E4FCFDFECDC42354E0CDC42368
:1020A300CD6DCD54E0CD6DFCEFC423541F4DFDEF3A
:1020B300C42354E0FE7F00228F05EEC42354E0CDF9
:1020C300C423CD6DCD54E0CD6DFC7E007F0022E4B2
:1020D300FEC40354F8CFC403CF6FCF54F8CF6FFEC1
:1020E30022F074FFA3F022743EF074D1A3F074B510
:1020F300A3F07474A3F022EDF0EEA3F022FEF0EF50
:10210300A3F022F0EDA3F022EEF0EFA3F022E044DF
:1021130040FFF0229000DDECF0EDA3F022900033BD
:10212300FEF0EFA3F022900062EEF0EFA3F0229016
:102133000037EEF0EFA3F022900035FEF0EFA3F0AE
:1021430022900048EEF0EFA3F022900066ECF0ED51
:10215300A3F0EEA3F0EFA3F022900008740FF07445
:10216300A0A3F02290008CFAF0EBA3F0ECA3F0ED27
:10217300A3F022904092EEF0EFA3F02290409674E9
:1021830002F0748FA3F022904094740AF07465A354
:10219300F02290407C7402F0748FA3F02290407080
:1021A300740AF07465A3F0229040B8EEF0EFA3F048
:1021B300229040CCEEF0EFA3F0229000C9EDF0EEB8
:1021C300A3F0229000B5EEF0EFA3F0229000B1EE61
:1021D300F0EFA3F0229000A3EEF0EFA3F022900023
:1021E300A1EEF0EFA3F02290405C740AF074BFA359
:1021F300F022900FD4EEF0EFA3F022900FD2EEF086
:10220300EFA3F022900FD0EEF0EFA3F022900101A4
:10221300EBF0ECA3F0EDA3F0EEA3F022900101EAC2
:10222300F0EBA3F0ECA3F0EDA3F022900101E4F0B6
:10223300A3F0A3F0A3F0229000FDECF0EDA3F0EEE9
:10224300A3F0EFA3F0229000FDE4F0A3F0A3F0A32A
:10225300F022F9E58124FBF8E6B2E7F6E9022392DE
:10226300122306BC0003022554EF60FA30D502B2F4
:10227300D1E583B4FF0302256AE582B4FF03022597
:102283006A258340072482400B022554248314507B
:102293000302256AF582EA8DF0A4A8F0EA8EF0A481
:1022A30028F8E435F0F9EB8DF0A428E935F0F9E4EA
:1022B30033CA8FF0A429F9EA35F0FAEBF88EF0A4CB
:1022C30029F9EA35F0FAE433FBEC8DF0A429F9EAB5
:1022D30035F0FAE43BFBE88FF0A42AFAEB35F0FB88
:1022E300E433CCFD8EF0A42AFAEB35F0FBE43CFC9E
:1022F300ED8FF0A42BFBEC35F0FC20E70312233425
:10230300022533AA82AB83A2F73392D1F58260020E
:10231300D2F7ACF0E58124FCF8E6FD18E6FE18865A
:10232300F018E6A2F73392D5F5836002D2F7AFF047
:012333002287
:08006C00E478FFF6D8FD0174F1
:102334007804EC7011E58224F8500AF582E4C9CAE5
:10234400CBFCD8EF22EC7820058220E713D582015C
:1023540022C3E933F9EA33FAEB33FBEC33FCD8EA72
:03236400158222BD
:100089007944E94400602A7A01902873780F7D0148
:10009900E493C0E0E582CBE583CC88828D83D0E010
:1000A900F0CBF582CCF583A308B800010DD9E1DACC
:0300B900DF01BCA8
:10236700FFE58124FBF8EF122409D2D133E64005BB
:1023770030E708E42220E705740122C2D11223EBDB
:10238700E970012220D101B3E43322122306790038
:10239700E583B58202800D5003122582E583C3953C
:1023A700821226C1E5D0C465D020E117EA2DFAEBE9
:1023B7003EFBEC3FFC500974011226C1EC4480FC43
:1023C700022533C3EA9DFAEB9EFBEC9FFC500FC33B
:1023D700E499F9E49AFAE49BFBE49CFCB2D112235A
:0423E7003402253364
:1000740078F7E8440E600C790F900000E4F0A3D800
:05008400FCD9FA01891E
:1023EB007901AA82E68F82B5821308E6B5F00E0852
:1023FB00E6B5830908E68A82B58202790022B480A9
:10240B000FE5F0700AE5837006E58270027F00EF3E
:10241B00B6801508B6001008B6000B08B6000618F3
:10242B00181876002218181822AF82AE83ADF0FC74
:10243B00C2D530E70FD2D5E4C39FFFE49EFEE49DE7
:10244B00FDE49CFCA8811818E6FB18E6FA18E6F9DF
:10245B0018E6F8E830E70FB2D5E4C39BFBE49AFA31
:10246B00E499F9E498F812275B30D513FFE4C39590
:10247B0082F582E49583F583E495F0F5F0E49F22F1
:10248B00C5827002158314C58222FCABF07A0079E9
:10249B0000748E02268A1227F88582F0E58322FCCF
:1024AB00ABF0E4FAF9748E0226B7AFF0FEF0EFA3AF
:1024BB00F022C016858116C8E5812405F581C8A8D0
:1024CB0016080808A6F008A68308A682E5162403BA
:1024DB00F88602088603088604E51624FBF8A9167D
:1024EB0009E6F708E609F7A816088606088607A87E
:1024FB0016080816B6FF021816EE4F60168AF08BF8
:10250B00838C82E51624FDF8E6122867A3AB83AC17
:10251B008280D4E5162403F808088682188683186F
:10252B0086F0851681D01622B98003EA13B34010CA
:10253B00EA2401FAE43BFBE43CFC50047C8005827A
:10254B00BC000EBB000BBA0008E4F5F0F583F58276
:10255B0022A2D1E582138CF092F78B838A8222E43C
:10256B00F583F58275F080F4A2D11322E4F583F59F
:10257B008275F0C0747F22E582C583F582A2D133C8
:10258B00A2D592D11392D5ECCFFCEBCEFBEACDFAD0
:10259B002212230630D502B2D1BF000FBE000CBDF4
:1025AB000009BC000302257702256ABF8013BE0019
:1025BB0010BD000DE583B47F08E582B4000302254E
:1025CB004BBC0009BB0006BA0003022554E583B4DB
:1025DB00FF0BE582B4FF03022577022554E582B495
:1025EB00FF0302256AC395835007247F400B022506
:1025FB0054248014500302256AF582C3ED9AEE9B96
:10260B00EF9C40111582C3EA33F9EB33FAEC33FB41
:10261B00E433FC8005E4CCCBCAF9C08275F019C356
:10262B00E99DEA9EEB9FEC9400D5F002802D400EC5
:10263B00E99DF9EA9EFAEB9FFBEC9400FCC3B3E82F
:10264B0033F8E58233F582E58333F583C3E933F958
:10265B00EA33FAEB33FBEC33FC80C4B3E4F938FA1E
:10266B00E43582FBE43583FCD082500405827C8008
:10267B0012233402254BFCABF0AA83A982749EF57E
:10268B0082C2D1EC30E716D2D1E9F42401F9EAF495
:10269B003400FAEBF43400FBECF43400FC1223347A
:0326AB00022533D2
:0300690002006C26
:0B00BC007581201228536003020066CB
:1026AE00FCABF0AA83A982749EC2D1F582122334A8
:1026BE000225336040F82582500274FFF582E8242B
:1026CE00F8501ECCCBCAF9E4CC24F85014CBCAF97E
:1026DE00E4CB24F8500BCAF9E4CA24F8500379006D
:1026EE002224086010F8C3EC13FCEB13FBEA13FA78
:1026FE00E913F9D8F12202274575F008758200EF2B
:10270E002FFFEE33FECD33CDCC33CCC58233C58215
:10271E009BED9AEC99E58298400CF582EE9BFEEDCE
:10272E009AFDEC99FC0FD5F0D6E4CEFBE4CDFAE49D
:10273E00CCF9A882022790AF82AE83ADF0FCA881BF
:10274E001818E6FB18E6FA18E6F918E6F8B800A924
:10275E00B90062BA0034EC8BF084CFCECDFCE5F03C
:10276E00CBF97818EF2FFFEE33FEED33FDEC33FC93
:10277E00EB33FB10D703994004EB99FB0FD8E5E43C
:10278E00F9FA8F828E838DF0EC227818EF2FFFEE00
:10279E0033FEED33FDEC33FCC933C910D7059BE98D
:1027AE009A4007EC9BFCE99AF90FD8E0E4C9FAE4E9
:1027BE00CCFB02279075F010EF2FFFEE33FEED33BA
:1027CE00FDCC33CCC833C810D7079BEC9AE89940A0
:1027DE000AED9BFDEC9AFCE899F80FD5F0DAE4CD02
:1027EE00FBE4CCFAE4C8F9022790122855C3749E74
:1027FE009582403979001226C130D126E9F42401A0
:10280E00F582EAF43400F583EBF43400F5F0ECF4E1
:10281E003400700AE582458345F0700122E430E70A
:10282E000F22EC20E71489828A838BF02230D10AA2
:10283E00E4F582F583F5F074802274FFF582F5835A
:10284E00F5F0747F22E422AA82AB83A2F73392D1F1
:10285E00F5826002D2F7ACF02230F607A882F6229B
:05286E00F280FCF022E5
:00000001FF
