:10000000021C6C0222C2D2009000E17433F0A3748F
:100010008FF02202001E53DC9F2222022220C0E029
:10002000C083C082C0D0E5D2600F900120E0B4014F
:1000300005E4F043C90175D200D0D0D082D083D07E
:02004000E032AC
:06004300021E12021E75F0
:03004B00021D068D
:0F005300022244121EC5121E75E4F509F50A2299
:100063000222AC020427E86480F8E933E833601124
:100073000460F0ED33EC337009E8FCE9FDEAFEEBD4
:10008300FF220460DED3EB9FEA9EE99DE8C2E78C82
:10009300F0C2F795F0400CE8CCF8E9CDF9EACEFAD6
:1000A300EBCFFB1203F285D0F05804700320D5B3D5
:1000B300E80470075002B2D502043192D5EC046013
:1000C300F7E4CCC0E0C398F8603B94186008400D97
:1000D300D0E0FB020409E4FBFAC9FC8028E830E421
:1000E30006E4C9FBE4CAFCE830E305E4C9CACBFC77
:1000F300E854076010F8C3E913F9EA13FAEB13FBAA
:10010300EC13FCD8F130F52FC3E49CFCEF9BFFEE1E
:100113009AFEED99FDD0E0FBEF4E4D4C701222DBC1
:100123000302042EEC2CFCEF33FFEE33FEED33FD24
:10013300ED30E7EB020409EF2BFFEE3AFEED39FD5C
:10014300D0E0FB50130BBB0003020431ED13FDEEB3
:1001530013FEEF13FFEC13FC020409EC4D6011E8EE
:10016300497017ED33EC3304600DE4FCFFFEFD2210
:10017300E933E8330470F80204271203F2580460E9
:1001830009E4CC2481500628500902043128400395
:1001930002042EC0E0EB4A7044B98006D0E0FB02B3
:1001A300041DEF4E701CBD8008EBFFEAFEE9FD80E5
:1001B300EBE98DF0A4FEE5F0020247E9CDF9EAFE92
:1001C300EBFFEF89F0A4FCE5F0CE89F0A42EFFE469
:1001D30035F0CD89F0A42DFEE435F08067EF4E7045
:1001E30005BD80D780C3EF8BF0A4ACF0EE8BF0A4F9
:1001F3002CFCE435F0F8EF8AF0A42CE5F038FCE4AD
:1002030033CB8DF0A42CFCE5F03BF8EE8AF0A42C64
:10021300FCE5F038F8E433CF89F0A42CFCE5F038A2
:10022300CF3400CE89F0A42FFFE5F03EFEE433C9BE
:100233008DF0A42EFEE5F039CD8AF0A42FFFE5F072
:100243003EFEE43DFD33D0E0FB50070BBB000F0245
:100253000431EC2CFCEF33FFEE33FEED33FD0204EF
:1002630009020431EC5D046005E8590470030204DB
:10027300271203F2580460F6EC4860F2EC7004FDB8
:10028300FEFF22C860DB2481C85009C39860025076
:100293000602042E9850CAF582E9294B4A7005AB31
:1002A3008202041D75F0007C1A7880C3EF9BEE9ADE
:1002B300ED99400DC3EF9BFFEE9AFEED99FDE842E9
:1002C300F0DC23ACF0D0E0FFD0E0FED0E0FDAB8269
:1002D30020E7101BEB60BAEC2CFCEF33FFEE33FE90
:1002E300ED33FD020409E803F830E705C0F075F0CB
:1002F30000EF2FFFEE33FEED33FD40B830E7C28051
:10030300AA74F8CC6480CCC86480C8F58204604FBA
:10031300C3EB9FF5F0EA9E42F0E99D42F0E89C456D
:10032300F0603C501DE5825FFFE582D313CB5BCBCE
:10033300F42B5582FB50280ABA002409B90020087F
:10034300801DE5825BFBE582D313CF5FCFF4C3133C
:100353002F5582FF50090EBE00050DBD00010CC3D1
:10036300EB9FF5F0EA9E42F0E99D42F0E89C45F0F0
:100373006007CC4820E701B3EC2275F020800E75AE
:10038300F010800575F0087D007E007F003392D564
:1003930030D50312062EEC334010EF33FFEE33FE5D
:1003A300ED33FDEC33FCD5F0ED22E5F0247EA2D550
:1003B30013CC92E7CDCEFF22EDD2E7CD33EC3392CF
:1003C300D524814006E4FFFEFDFC22FCE4CFCECD24
:1003D300CC24E0501174FF80EDC3CC13CCCD13CDEE
:1003E300CE13CECF13CF0470F030D5DE02062EE944
:1003F300D2E7C933E833F892D5EDD2E7CD33EC3306
:10040300FC5002B2D522EC30E7100FBF000C0EBE39
:1004130000080DBD00040BEB6014A2D5EB13FCED3B
:1004230092E7FD2274FFFCFDFEFF22E480F8A2D5D3
:1004330074FF13FC7D80E480EFBB010689828A830D
:10044300E0225002E722BBFE02E32289828A83E490
:100453009322BB010CE58229F582E5833AF583E01B
:10046300225006E92582F8E622BBFE06E92582F83A
:10047300E222E58229F582E5833AF583E49322F8C3
:10048300BB010DE58229F582E5833AF583E8F02285
:100493005006E92582C8F622BBFE05E92582C8F28B
:1004A30022EF8DF0A4A8F0CF8CF0A428CE8DF0A479
:1004B3002EFE22BC000BBE0029EF8DF084FFADF0B1
:1004C30022E4CCF875F008EF2FFFEE33FEEC33FC9B
:1004D300EE9DEC984005FCEE9DFE0FD5F0E9E4CED1
:1004E300FD22EDF8F5F0EE8420D21CFEADF075F0A0
:1004F30008EF2FFFED33FD4007985006D5F0F222A9
:10050300C398FD0FD5F0EA22C2D5EC30E709B2D586
:10051300E4C39DFDE49CFCEE30E715B2D5E4C39F34
:10052300FFE49EFE1204B6C3E49DFDE49CFC80033D
:100533001204B630D507C3E49FFFE49EFE22BB013D
:100543000A89828A83F0E5F0A3F0225006F709A70F
:10055300F01922BBFE06F3E5F009F3192275F00842
:10056300758200EF2FFFEE33FECD33CDCC33CCC5F8
:100573008233C5829BED9AEC99E58298400CF58213
:10058300EE9BFEED9AFDEC99FC0FD5F0D6E4CEFB85
:10059300E4CDFAE4CCF9A88222B800C1B90059BA73
:1005A300002DEC8BF084CFCECDFCE5F0CBF97818A1
:1005B300EF2FFFEE33FEED33FDEC33FCEB33FB109B
:1005C300D703994004EB99FB0FD8E5E4F9FA2278B5
:1005D30018EF2FFFEE33FEED33FDEC33FCC933C9C7
:1005E30010D7059BE99A4007EC9BFCE99AF90FD8D1
:1005F300E0E4C9FAE4CCFB2275F010EF2FFFEE33F1
:10060300FEED33FDCC33CCC833C810D7079BEC9A2F
:10061300E899400AED9BFDEC9AFCE899F80FD5F0B8
:10062300DAE4CDFBE4CCFAE4C8F922C3E49FFFE4A7
:100633009EFEE49DFDE49CFC22EB9FF5F0EA9E42C6
:10064300F0E99D42F0EC6480C864809845F022EBA9
:100653009FF5F0EA9E42F0E99D42F0E89C45F022C6
:10066300E8600FECC313FCED13FDEE13FEEF13FF75
:10067300D8F122E86010ECA2E713FCED13FDEE13B2
:10068300FEEF13FFD8F022E8600FEFC333FFEE3322
:10069300FEED33FDEC33FCD8F122ECF0A3EDF0A337
:1006A300EEF0A3EFF022A8828583F0D083D08212EC
:1006B30006C01206C01206C01206C0E473E493A378
:1006C300C583C5F0C583C8C582C8F0A3C583C5F07B
:1006D300C583C8C582C822EC8EF0A4CCC5F0CCCDAE
:1006E300F8EFA4CEC5F02DFDE43CFCE8A42EC8C56C
:1006F300F03DFDE43CFCEFA4FFE5F028FEE43DFD06
:10070300E43CFC22EF4E6012EF60010EEDBB010BE7
:1007130089828A83F0A3DFFCDEFA2289F05007F78F
:1007230009DFFCA9F022BBFEFCF309DFFCA9F022E0
:10073300E5B554C0FF24C070030208EC24C0700365
:10074300020A8324806003020C1C900ECAE05480CA
:1007530090024BF0900ECAE0544090024CF0900E81
:10076300CAE0540F90024DF090024BE07003020870
:100773004590024E1206A90000000090024EE0F8D8
:10078300A3E0F9A3E0FAA3E0FBC000900EC9E0FFE9
:10079300E4FCFDFE781512068AD000EB4FFFEA4E0B
:1007A300FEE94DFDE84CFC90024E12069D90024E70
:1007B300E0F8A3E0F9A3E0FAA3E0FBC000900EC8C1
:1007C300E0FFE4FCFDFE780D12068AD000EB4FFF3C
:1007D300EA4EFEE94DFDE84CFC90024E12069D9058
:1007E300024EE0F8A3E0F9A3E0FAA3E0FBC0009017
:1007F3000EC7E0FFE4FCFDFE780512068AD000EB8D
:100803004FFFEA4EFEE94DFDE84CFC90024E120606
:100813009D90024EE0F8A3E0F9A3E0FAA3E0FBC049
:1008230000900EC6E0FFE4FCFDFE7804120663D0E0
:1008330000EB4FFFEA4EFEE94DFDE84CFC90024E03
:10084300805E9002521206A900000000900252E05E
:10085300F8A3E0F9A3E0FAA3E0FB900EC9E075F07A
:1008630008A4FFAEF0EE3395E0FDFCEB4FFFEA4E3C
:10087300FEE94DFDE84CFC90025212069D90025297
:10088300E0F8A3E0F9A3E0FAA3E0FB900EC8E0C40C
:10089300135407FFEB4FFFEAFEE9FDE8FC90025219
:1008A30012069D900EC5E0900256F0900EC4E090A3
:1008B3000257F0900EC3E0900258F0900EC2E09001
:1008C3000259F0900EC1E090025AF0900EC0E090F1
:1008D300025BF0900EBFE090025CF0900EBEE090E1
:1008E300025DF012179D020C1C900EBDE054809027
:1008F300024BF0900EBDE0544090024CF0900EBDC0
:10090300E0540F90024DF090024BE070030209E4B3
:1009130090024E1206A90000000090024EE0F8A3D8
:10092300E0F9A3E0FAA3E0FBC000900EBCE0FFE413
:10093300FCFDFE781512068AD000EB4FFFEA4EFE4F
:10094300E94DFDE84CFC90024E12069D90024EE0EC
:10095300F8A3E0F9A3E0FAA3E0FBC000900EBBE02C
:10096300FFE4FCFDFE780D12068AD000EB4FFFEA90
:100973004EFEE94DFDE84CFC90024E12069D90029E
:100983004EE0F8A3E0F9A3E0FAA3E0FBC000900E69
:10099300BAE0FFE4FCFDFE780512068AD000EB4FB7
:1009A300FFEA4EFEE94DFDE84CFC90024E12069D17
:1009B30090024EE0F8A3E0F9A3E0FAA3E0FBC00045
:1009C300900EB9E0FFE4FCFDFE7804120663D0004C
:1009D300EB4FFFEA4EFEE94DFDE84CFC90024E80E2
:1009E3005E9002521206A900000000900252E0F845
:1009F300A3E0F9A3E0FAA3E0FB900EBCE075F008D6
:100A0300A4FFAEF0EE3395E0FDFCEB4FFFEA4EFEA4
:100A1300E94DFDE84CFC90025212069D900252E013
:100A2300F8A3E0F9A3E0FAA3E0FB900EBBE0C41344
:100A33005407FFEB4FFFEAFEE9FDE8FC9002521278
:100A4300069D900EB8E0900256F0900EB7E090022B
:100A530057F0900EB6E0900258F0900EB5E0900279
:100A630059F0900EB4E090025AF0900EB3E0900269
:100A73005BF0900EB2E090025CF0900EB1020C17A6
:100A8300900EB0E0548090024BF0900EB0E05440D2
:100A930090024CF0900EB0E0540F90024DF0900293
:100AA3004BE07003020B7B90024E1206A90000007C
:100AB3000090024EE0F8A3E0F9A3E0FAA3E0FBC044
:100AC30000900EAFE0FFE4FCFDFE781512068AD01D
:100AD30000EB4FFFEA4EFEE94DFDE84CFC90024E61
:100AE30012069D90024EE0F8A3E0F9A3E0FAA3E01A
:100AF300FBC000900EAEE0FFE4FCFDFE780D120695
:100B03008AD000EB4FFFEA4EFEE94DFDE84CFC9026
:100B1300024E12069D90024EE0F8A3E0F9A3E0FA1C
:100B2300A3E0FBC000900EADE0FFE4FCFDFE780502
:100B330012068AD000EB4FFFEA4EFEE94DFDE84C6A
:100B4300FC90024E12069D90024EE0F8A3E0F9A33A
:100B5300E0FAA3E0FBC000900EACE0FFE4FCFDFE76
:100B63007804120663D000EB4FFFEA4EFEE94DFD19
:100B7300E84CFC90024E805E9002521206A90000DF
:100B83000000900252E0F8A3E0F9A3E0FAA3E0FB2F
:100B9300900EAFE075F008A4FFAEF0EE3395E0FDE4
:100BA300FCEB4FFFEA4EFEE94DFDE84CFC90025290
:100BB30012069D900252E0F8A3E0F9A3E0FAA3E045
:100BC300FB900EAEE0C4135407FFEB4FFFEAFEE9C0
:100BD300FDE8FC90025212069D900EABE090025687
:100BE300F0900EAAE0900257F0900EA9E090025800
:100BF300F0900EA8E0900259F0900EA7E090025AF0
:100C0300F0900EA6E090025BF0900EA5E090025CDF
:100C1300F0900EA4E090025DF043B204229000C273
:100C2300E0FEA3E0FFC39000C5E09FEE6480F89070
:100C330000C4E06480984003020D049000C6E07095
:100C430002A3E06003020D049000C5E02406F090C7
:100C530000C4E03400F09000DFE09000D1700CE0BD
:100C63002405F09000D0E03400800AE024FBF090EB
:100C730000D0E034FFF0E0FFA3E09040CCCFF0A33E
:100C8300EFF09000C2E0FEA3E0FFC39000C5E09F39
:100C9300EE6480F89000C4E0648098404C9000C6F5
:100CA300E4F0A304F0900F5CE4F0A374CCF0900F95
:100CB30062E4F0A374A3F0900F5EE4F0A3F0A3F05A
:100CC300A3F0900F64EEF0A3EFF0A3E4F0A3F0A37E
:100CD3007410F0A37441F0A3740BF0A37485F09027
:100CE30000D074FEF0A37455F09000D0E0FFA3E0B1
:100CF300A3CFF0A3EFF09000CA7403F0A3748CF0B9
:100D0300229040BCE0FFA3E09000C8CFF0A3EFF037
:100D13009000C8E0FEA3E0FFC39000CBE09FFF90EC
:100D230000CAE09E9000CCF0A3EFF09000C8A3E0CF
:100D3300FFA3EEF0A3EFF0C374D29FFF74039E9062
:100D43000F60F0A3EFF075C127E5C120E7FB900F1B
:100D530064E0FFA3E09000C4CFF0A3EFF0900FA0F6
:100D63007407F0A374F8F09000CCE0FEA3E0FFD387
:100D73009400EE648094804065900FA2EEF0A3EFA0
:100D8300F075C10AE5C120E7FB900FA6E0FFA3E0E1
:100D93009000FDCFF0A3EFF0E07F00FE9000FDF0A8
:100DA300A3EFF0D394FFEE648094FF900FA4401A56
:100DB300A3E0FCA3E02400FFE43CCF2401CF3400F4
:100DC3009000CEF0A3EFF0020E64A3E0FCA3E024B6
:100DD30000FEE43C9000CEF0A3CEF0020E6490003F
:100DE300CCE0FEA3E0FFC3E49FFFE49E900FA2F0DC
:100DF300A3EFF075C10AE5C120E7FB900FA6E0FF62
:100E0300A3E09000FDCFF0A3EFF0E07F00FE9000A1
:100E1300FDF0A3EFF0D394FFEE648094FF900FA452
:100E23004019A3E0FCA3E02400FFE43CCF2401CF5E
:100E330034009000CEF0A3EFF08011A3E0FCA3E018
:100E43002400FEE43C9000CEF0A3CEF09000CEE070
:100E5300FEA3E0FFC3E49FFFE49E9000CEF0A3EF68
:100E6300F09000CEE0FEA3E0FF9000D1E02FF090E1
:100E730000D0E03EF0E0FEA3E0FF2464FDE43EFC8E
:100E8300A3E0FAA3E0FBD39DEC6480F8EA648098C6
:100E9300400DE0249CF09000D2E034FFF08032EF6C
:100EA300249CFFEE34FFFEC3EB9FEE6480F8EA64FC
:100EB300809850109000D3E02464F09000D2E03486
:100EC30000F0800D9000D0E0FFA3E0A3CFF0A3EFEC
:100ED300F09000D2E0FFA3E09040CCCFF0A3EFF07E
:100EE30022904039E04440F0E50964017003020FA9
:100EF3007BE5097003020F7B9040D4E0FEA3E0FF83
:100F03009000BAE0FCA3E0FD7B321220109000BAFF
:100F1300EEF0A3EFF09040AEE0FEA3E07802C3331F
:100F2300CE33CED8F9FF9000F2E0FCA3E0FD7B3294
:100F33001220109000F2EEF0A3EFF0E509640870C0
:100F4300449040D8A3E025E0FF0582D582021583B3
:100F53001582E0339000B6F0A3EFF09000B6E0FE08
:100F6300A3E0FFA3E0FCA3E0FD7B1E121FD69000CD
:100F7300B8EEF0A3EFF0800DE49000BAF0A3F09088
:100F830000B8F0A3F0900FEEE0FFA3E09000FFCFD6
:100F9300F0A3EFF0900242E0FEA3E0FF9000FFE039
:100FA300FCA3E0FDD39FEC9E400EED9FFFEC9E90D3
:100FB30000FFF0A3EFF08007E49000FFF0A3F090B0
:100FC30000FFE0FEA3E0FF9000B0E0FCA3E0FD7BA8
:100FD300201220109000B0EEF0A3EFF0900FDCE0B1
:100FE300FEA3E0FF9000AEE0FCA3E0FD7B32122005
:100FF300109000AEEEF0A3EFF0900FDEE0FEA3E062
:10100300FF9000B4E0FCA3E0FD7B321220109000BF
:10101300B4EEF0A3EFF09040BAE0FEA3E0FF90003F
:10102300BEE0FCA3E0FD7B321220109000BEEEF088
:10103300A3EFF09040B8E0FEA3E0FF9000C0E0FC17
:10104300A3E0FD7B321220109000C0EEF0A3EFF07E
:101053001222E79000FCEFF012000612001A12129F
:101063009812197AD39000F9E094009000F8E09474
:1010730000400CA3E024FFF09000F8E034FFF09070
:101083000119E0D394004003E014F090011AE0D377
:1010930094004003E014F090016BE0600214F0E56B
:1010A30009B40503120C20900124E0B4011090014F
:1010B30046E004F07016900145E004F0800E9001C4
:1010C30048E004F07006900147E004F0C390014645
:1010D300E0940A900145E09400401553BBFE43BBE6
:1010E30001E4900124F0900145F0A3F0A3F0A3F0F4
:1010F300C3900148E09410900147E09427401553B2
:10110300BBFE43BB01E4900124F0900145F0A3F042
:10111300A3F0A3F02290405C740AF0A374BFF09094
:101123004062E0547FF0E054DFF0E04420F0904070
:101133009FE054DFF0E04410F09040D874FFF0904B
:1011430040A0E4F0A3F0904090F0A3F0A3F0A3F04C
:101153009040CCF0A3F09040AAF0A3F09040A8F008
:10116300A3F09040ACF09040AE7402F0A37422F070
:101173009040AD7404F0904082E4F0A3F0A3F0A398
:10118300F0A3F0A3F09040B07473F0A37432F0A313
:10119300748CF0A374CEF0A3747EF0A374B7F0A3A1
:1011A3007481F0A37449F09040707427F0A374FD28
:1011B300F090407C741AF0A374E1F090409474278B
:1011C300F0A374FDF0A3741AF0A374E1F090408CC3
:1011D3007405F0A374ECF0A37403F0A3746EF090A1
:1011E30040887402F0A3747DF0A3E4F0A3F0904070
:1011F300A1E0547FF0904078746CF0A374CBF0A31B
:10120300E4F0A3744BF090409FE04402F090409EC2
:10121300E04420F09040807407F0A374A5F0904060
:101223007EE4F0A37480F09040A37420F09040A07B
:10123300E04401F09000DFE09040627006E054BFAC
:10124300F08004E04440F09040A5740BF09040A07F
:10125300E054F3F09040A2744EF09040A1E054DFCC
:10126300F090024AE0B401169040A1E054F3F090EC
:101273000242E0FFA3E09040A6CFF0A3EFF090403E
:10128300A1E054FEF0E054FDF0904062E04480F0B1
:10129300E04408F022E50964086009E5096409608F
:1012A3000302140F9000D8E014700302138D04603E
:1012B3000302140FD39000BBE0949F9000BAE06444
:1012C30080948550030213739000F1E004F0E0D39F
:1012D300940A500302140F9000D87401F0904094C4
:1012E3007427F0A374FDF0A3741AF0A374E1F090D3
:1012F30040707427F0A374FDF090407C741AF0A33F
:1013030074E1F012204A121F5D1220EB9000D7E027
:1013130064B060129000BAE0FCA3E0FDEC1203821B
:101323009000A212069D9040AE7402F0A37422F0C6
:101333009000F6E4F0A304F09000A61206A93FCCB7
:10134300CB339000AA1206A93FCCCB33904092E056
:10135300FFA3E09000E3CFF0A3EFF0904090E4F020
:10136300A3F09000E3E0FFA3E0900FB0CF02140BD3
:101373009000B27402F0A37422F09040AE7402F0B5
:10138300A37422F0E49000F1F0229000F7E004F05F
:1013930070069000F6E004F0C39000F7E09401902B
:1013A30000F6E094004065E4F0A3F09000E1E0FE75
:1013B300A3E0FF12156A90009EEEF0A3EFF09000F9
:1013C300BAE0FCA3E0FDC3EF9DFFEE9CFE12227A80
:1013D3009000E7EEF0A3EFF09000B0E0FEA3E0FF93
:1013E300C374609FFF740B9EFE1222939000E9EE7C
:1013F300F0A3EFF09000E7E0FEA3E0FF9000E3EE40
:10140300F0A3EFF0904092EEF0A3EFF022E50A6034
:101413000375090AE509B40C00400302156690142C
:1014230028F828287302144C02146A02148B02153C
:10143300660215660214C80214EE0215660215361A
:1014430002153D02155502154012226190024AE031
:10145300640160030215692000030215697509011F
:10146300F09002480214FA20000302153990024A50
:10147300E0640160030215691200469000F8E4F08D
:10148300A3743CF0750902222000030215391218D7
:101493009D9000F8E07002A3E06003021569C2FFAB
:1014A3009000DFE09000FA700974FFF0A374EEF08F
:1014B3008006E4F0A3740DF07509059000F8E4F0DC
:1014C300A37414F022200002806C1216909000F88E
:1014D300E07002A3E07004750906229000C4E0FFE7
:1014E300A3E09040B8CFF0A3EFF0229000D7E0FF45
:1014F300B4B008E49000F8F0A3F022EFB4C025D311
:101503009000F9E094009000F8E094004003022179
:10151300A59000F8E4F0A37432F07509019000D7A8
:1015230074A0F0229000D7E064A0703A121BC47537
:1015330009082220003075090922021F9C9000F837
:10154300E07002A3E0701FC2FF904062E054DFF03E
:101553008011E50A7003F50922904062E054DFF040
:10156300C2FF22E4F509229000A0EEF0A3EFF0FD04
:10157300AC06EC1203829000A2E0F8A3E0F9A3E02A
:10158300FAA3E0FB12030450789000A6E0FCA3E06A
:10159300FDA3E0FEA3E0FF9000A2E0F8A3E0F9A31F
:1015A300E0FAA3E0FB12006DC004C005C006C0074B
:1015B3009000A0E0FCA3E0FDEC120382A804A905BF
:1015C300AA06AB07D007D006D005D00412030460E7
:1015D3002240209000A2E0FCA3E0FDA3E0FEA3E0F4
:1015E300FFA3E0F8A3E0F9A3E0FAA3E0FB12006D88
:1015F3000216799000A0E0FCA3E0FDEC12038280C8
:10160300759000AAE0F8A3E0F9A3E0FAA3E0FB9049
:1016130000A2E0FCA3E0FDA3E0FEA3E0FF1200694B
:10162300C004C005C006C0079000A0E0FCA3E0FD15
:10163300EC120382A804A905AA06AB07D007D006BB
:10164300D005D00412030450219000A2E0FCA3E0D3
:10165300FDA3E0FEA3E0FF9000AAE0F8A3E0F9A356
:10166300E0FAA3E0FB120069800C9000A0E0FCA369
:10167300E0FDEC1203829000A212069D9000A2E00E
:10168300FCA3E0FDA3E0FEA3E0FF0203BB9002681E
:10169300E030E20302179CE04404F012111890407A
:1016A30074E4F0A3F0A3F0A3F09040D4F0A3F0907F
:1016B30040A1E04401F0E04402F09000AEE0FEA35C
:1016C300E0FFC394FBEE648094A9501EEF2427FD32
:1016D300EE34E1FC1203827B4E7AFD799E78BE12D2
:1016E300015E7B007A08798280229000AFE02405B6
:1016F300FD9000AEE034D6FC1203827B447A10796D
:101703006B78BD12015E7B007AC0794C784512007C
:101713006D1203BB9000C2EEF0A3EFF0E49000C49F
:10172300F0A3F09040BAF0A3F09040707407F0A3D8
:1017330074FFF090407C7419F0A37499F090409476
:101743007407F0A374FFF0A37419F0A37499F090D5
:1017530000DFE09000D0701174F3F0A37434F0A3B1
:1017630074F3F0A37434F0800F7409F0A37475F06C
:10177300A37409F0A37475F0E49000C6F0A3F0908D
:1017830000D0E0FEA3E0FF9040CCEEF0A3EFF0D258
:10179300FF9040CCEEF0A3EFF022E5B3C330E301BA
:1017A300D350F790024CE0FF90024BE0FE4FFF90C6
:1017B300024DE04F900ED7F0EE606290024EE0FCD7
:1017C300A3E0FDA3E0FEA3E0FF7815120663900EED
:1017D300D6EFF090024EE0FCA3E0FDA3E0FEA3E011
:1017E300FF780D120663900ED5EFF090024EE0FCE9
:1017F300A3E0FDA3E0FEA3E0FF7805120663900ECD
:10180300D4EFF090024EE0FCA3E0FDA3E0FEA3E0E2
:10181300FF780412068A900ED3EFF08039900252BB
:10182300E0FCA3E0FDA3E0FEA3E0FF780312066360
:10183300900ED6EFF0900252E0FCA3E0FDA3E0FE91
:10184300A3E0FF780512068A900ED5EFF0900ED430
:10185300E4F0900ED3F0900256E0900ED2F0900296
:1018630057E0900ED1F0900258E0900ED0F0900225
:1018730059E0900ECFF090025AE0900ECEF0900215
:101883005BE0900ECDF090025CE0900ECCF0900205
:101893005DE0900ECBF043B20122900268E020E1BC
:1018A30048E04402F0904062E04480F090405EE003
:1018B300FCA3E0FDE41203827BCD7ACC79CC783DA6
:1018C30012015E1203BB904058EEF0A3EFF090407C
:1018D3005CC083C082D082D083E4F0A3F0904062E6
:1018E300E054F7F0E49000D6F0C39000F9E0943CA4
:1018F3009000F8E0940050209000D6E0701A04F0B5
:1019030090405CC083C082E0FFA3E04401D082D05A
:1019130083CFF0A3EFF0D2FFD39000F9E0942890A7
:1019230000F8E0940050209000D6E0B4011974024E
:10193300F090405CC083C082E0FFA3E04404D08207
:10194300D083CFF0A3EFF0D39000F9E0941490008C
:10195300F8E0940050209000D6E0B402197403F02C
:1019630090405CC083C082E0FFA3E04410D082D0EB
:1019730083CFF0A3EFF022E50964086003021A475E
:101983009000D8E07038C39000E4E094469000E300
:10199300E064809482500EA3E0241EF09000E3E004
:1019A3003400F0800A9000E37402F0A37446F090D0
:1019B30000E3E0FFA3E0904092CFF0A3EFF09000AC
:1019C300F8E0FEA3E0FF64504E701290407474037D
:1019D300F0A37493F0A3E4F0A37405F022EF643C46
:1019E3004E701A90407AF0A37496F0904074740786
:1019F300F0A37426F0A3E4F0A37415F022EF642897
:101A03004E701B90407A04F0A3742CF090407474D1
:101A13000AF0A374B9F0A3E4F0A37430F022D3EF77
:101A23009414EE9400501D9000E0E0701790407401
:101A33007411F0A374E0F0A3E4F0A37450F09000E9
:101A4300E07401F022010800C10041011B004200C3
:101A53009A000042009C000042009E000048025E83
:101A630000000000000000004401C6000000006008
:101A73003F01DC4647484A4B4C4D4F50515253545B
:101A8300565758595B5C5D5F60616364656668695E
:101A93006B6C6E6F707273757678797B7C7E8081E8
:101AA30083848688898B8D8E9092949597989A9C3F
:101AB3009EA0420176000041019200410152004183
:101AC30001530041014B004A016CFFFFFFFFFFFF81
:101AD300FFFF00004A01782A2EE2A3640000000001
:101AE30000410193004201490000410121004201EC
:101AF300500000500182202122230000000000003A
:101B030000000000000044014C785634120090405D
:101B130039E04440F0904039E020E6F9900244E097
:101B2300F8A3E0F9A3E0FAA3E0FB900FE0E0547F11
:101B3300FEA3E054F8FFE4FCFDEB2FFFEA3EFEEDCD
:101B430039FDEC38FC90024412069D900244E0FCFF
:101B5300A3E0FDA3E0FEA3E0FF7804120676900263
:101B630042EEF0A3EFF0A3E0FCA3E0FDA3E0FEA3AD
:101B7300E0FFC006C007900242E0FEA3E0FBAA0616
:101B8300EA3395E0F9F8D007D006C3EF9BFFEE9A4E
:101B9300FEED99FDEC98FCA312069D900249E0042A
:101BA300F07006900248E004F0D3900249E094E814
:101BB300900248E064809483400690024A7401F0E6
:101BC30022121118D2FF9000D2E0FEA3E0FF904052
:101BD300CCEEF0A3EFF02400FFEE34F0A3F0A3EF7C
:101BE300F0904090E4F0A3F09000E3F0A37448F089
:101BF3009000C4E0FFA3E09040B8CFF0A3EFF090D3
:101C030040707427F0A374FDF090407C741AF0A325
:101C130074E1F09040947427F0A374FDF0A3741A58
:101C2300F0A374E1F0904074E4F0A3F0A3F0A3F008
:101C3300904082F0A304F0A304F0A3747FF0A37494
:101C430004F0A3740FF09040A0E0548F4450F09040
:101C530000F87401F0A3747CF09000E3E0FFA3E0CC
:101C6300904092CFF0A3EFF02278FFE4F6D8FD90F6
:101C730000007F007E10E4F0A3DFFCDEFA758169CB
:101C8300021CC1022081E493A3F8E493A34003F66A
:101C93008001F208DFF48029E493A3F85407240CAD
:101CA300C8C333C4540F4420C8834004F45680018E
:101CB30046F6DFE4800B0102040810204080901AEE
:101CC30048E47E019360BCA3FF543F30E509541FF1
:101CD300FEE493A360010ECF54C025E060A840B892
:101CE300E493A3FAE493A3F8E493A3C8C582C8CA10
:101CF300C583CAF0A3C8C582C8CAC583CADFE9DEE3
:101D0300E780BEC0E0C0F0C083C082C0D075D00001
:101D1300C000C004C005C006C007E59D30E70353FB
:101D23009D7FE59D30E62D900118E0702490010C15
:101D3300E5A5F0A3E5A4F0900110E5A7F0A3E5A6BF
:101D4300F09001187401F090011C1206A900000024
:101D530000539DBFE59D30E52D900118E07024E50B
:101D63009090010C30E108740FF0A374A08003E499
:101D7300F0A3F0900110740FF0A374A0F090011879
:101D83007401F0539DDFD007D006D005D004D000F6
:101D9300D0D0D082D083D0F0D0E03290405E7417A0
:101DA300F0A3746FF0A37418F0904058E4F0A3F01C
:101DB30090405C740AF0A374BFF0E4F5F853F9FDA6
:101DC30053F9FE904061E054F7F0E054EFF0E04443
:101DD30002F0E054FEF090405A7402F0A374EEF067
:101DE300538A7F438A40904061E054FBF0A3E05460
:101DF300DFF0E04404F0E04480F0E054EFF0E0442E
:101E030001F090401DE04410F0A3E054EFF022C035
:101E1300E0C0F0C083C082C0D075D000C000C00154
:101E2300C002C003C004C005C006C007E5B630E069
:101E33000612073343B204E5B630E10353B6FDE5BA
:101E4300B630E30353B6F7E5B630E20353B6FBE52A
:101E5300B630E40353B6EFD007D006D005D004D094
:101E630003D002D001D000D0D0D082D083D0F0D024
:101E7300E0327E007F327D007B017A017994120784
:101E8300079001AC749BF0A374D2F0A3746FF0A31A
:101E9300744DF09001BA748CF0A3749EF0A3740394
:101EA300F0A3741FF0E4900268F09000D8F0900063
:101EB300D6F09000E0F09000D774A0F0E490011BFE
:101EC300F022E4900268F09000DFF09002381206EE
:101ED300A900003FFF90023E1206A900003FFF90B9
:101EE30002441206A900003FFF74FF900110F0A303
:101EF300F07E007F327D007B017A0179941207071F
:101F03007E007F127D007B017A0179CA0207079068
:101F13004051E04401F0E04408F0E04410F0E044B4
:101F230020F0E04480F0A3E04410F0904051E044FE
:101F330040F0904036C083C082E04488FFA3E04471
:101F43009FD082D083CFF0A3EFF0904039E04404D8
:101F5300F0E054FDF0E04480F022900F5C741FF039
:101F6300A374FEF0900F627402F0A3748FF0900FCD
:101F73005EE4F0A3F0A3F0A3F0900F64F0A3F0A34A
:101F8300F0A3F0A3747EF0A374B7F0A3E4F0A3F07E
:101F9300A3F0A3F0A3F0A3F0229000BAE0FEA3E025
:101FA300FFC394BFEE648094DD400A9000F8E070B4
:101FB30002A3E0701DC3EF94BFEE648094DD501262
:101FC300C2FF1221A575090B9000F8740FF0A374DA
:101FD300A0F022900266EEF0A3EFF0AF03EF900FB4
:101FE300D0F0A3E4F0900266E0FFA3E0900FD2CF1D
:101FF300F0A3EFF0AF05A3ECF0A3EFF075C10EE58E
:10200300C120E7FB900FD4E0FEA3E0FF229002661D
:10201300EEF0A3EFF0AF03EF900FD0F0A3E4F09056
:102023000266E0FFA3E0900FD2CFF0A3EFF0AF057D
:10203300A3ECF0A3EFF075C10EE5C120E7FB900F11
:10204300D4E0FEA3E0FF22900FA87409F0A37499D3
:10205300F0900FAEE4F0A37483F0900FAAE4F0A322
:10206300F0A3F0A3F0900FB0F0A3F0A3F0A3F0A3BC
:102073007411F0A314F0A3E4F0A37457F022E4FF67
:10208300FE0FBF00010EBE3AF8BF98F512005612BC
:10209300211B12001690024AE07005121B118003E7
:1020A300121410E50860EEB292122303120EE4E458
:1020B300F50880E1904051E04480F053D6BF53D6F9
:1020C300DF904035E04480F0E054BFF090404B7423
:1020D300C3F043D60853D9FB53D9EF43D90843D9A7
:1020E3000243D90143D61022900F48740FF0A37412
:1020F300FFF0A3E4F0A3F0A3F0A3F0A304F0A37410
:1021030047F0A3E4F0A3F0A3F0A3F0A3F0A3F0A39C
:1021130074EEF0A3743AF0221221D11220B77FF4A7
:102123007E0112214A1221FA121F12121D9E122140
:10213300781222F71222D7538CDF438C1090406120
:10214300E04440F0D2AF2290401EE04420F07C8077
:102153007D001206DAE47BE87A03F9F812059CC3E2
:1021630074FC9F74FF9E904027F075C980904026B1
:10217300E04401F022904052E04402F0E04401F0D8
:10218300904051E04480F090404EE054EFF0E04442
:1021930001F0904034E054FBF0E04402F0E04401ED
:1021A300F022D2FF904062E054DFF0E054F7F0E019
:1021B3004480F090405CE4F0A37415F0A3E0FEA328
:1021C300E02404FFE43E904058F0A3EFF022904057
:1021D3004FE0547FF0E054BFF0E04404F0E04402E9
:1021E300F0904052E04420F043FF20E04404F0909C
:1021F300404FE04411F02243FE04D2A243FD04D237
:102203009243FC80D28743FC20D28543FC40C286A4
:10221300904050E04408F043FD08D29322C0E0C050
:1022230083C082904061E030E50374C2F090406166
:10223300E030E406E0448054EFF0D082D083D0E075
:1022430032C0E0C083C082904061E030E709750886
:1022530001E04410547FF0D082D083D0E03290026A
:1022630068E020E011E04401F0C2FF904062E054D6
:10227300DFF0E0547FF022900FACEEF0A3EFF075A7
:10228300C117E5C120E7FB900FB0E0FEA3E0FF22FA
:10229300900F60EEF0A3EFF075C127E5C120E7FBD7
:1022A300900F64E0FEA3E0FF22C0E0E5D730E70C27
:1022B300E50964046003750A0153D77FD0E032C097
:1022C300E0E5DB30E00BE5DB30E10353DBFD53DB23
:1022D300FED0E03253D77F53D57F43D540438D02A1
:1022E300438D0122904048E024DCF582E43401F57B
:1022F30083E0FF2290402FE04480F0E04440F0224E
:08230300904026E04401F022A5
:047FFC00CCD0600085
:00000001FF
